:020000040800F2
:10000000101E0020912000082D1800083918000843
:1000100045180008511800085D180008000000008D
:100020000000000000000000000000006918000847
:100030007518000800000000811800083D2A00081B
:10004000FD200008FD200008FD200008FD2000081C
:10005000FD200008FD200008FD200008FD2000080C
:10006000FD200008FD200008FD200008FD200008FC
:10007000FD200008FD200008FD200008FD200008EC
:10008000FD200008FD200008FD200008FD200008DC
:10009000FD200008FD200008FD200008FD200008CC
:1000A000FD200008D1150008FD200008FD200008F3
:1000B0001D1600086D160008B9160008FD2000087E
:1000C000FD200008FD200008FD200008FD2000089C
:1000D000FD200008E5530008F1530008FD53000817
:1000E000FD200008FD2000089D180008FD200008E4
:1000F00051170008FD200008FD200008FD20000821
:10010000FD200008FD20000805170008FD2000085C
:10011000FD200008FD200008FD200008FD2000084B
:10012000FD200008FD200008FD200008FD2000083B
:10013000FD200008FD200008FD200008FD2000082B
:10014000FD200008FD200008FD2000088D18000893
:10015000FD200008FD200008FD200008FD2000080B
:10016000FD200008FD200008FD200008FD200008FB
:10017000FD200008FD200008FD200008FD200008EB
:10018000FD200008FD20000880B485B000AF786035
:100190000023FB607B68DB684FF0FF325A607B68AE
:1001A000DB684FF0FF325A61FB7B43F08003FB7347
:1001B0007B7B43F008037B737B68DB68FA689A619A
:1001C0001437BD465DF8047B704700BF80B586B02C
:1001D00000AF78600023FB7400237B610023FB6089
:1001E000032002F0FFFF7B68DB681B69FB607B6913
:1001F00001337B617A69174B9A4201D9002324E0CD
:10020000FB68DB0FDBB2002BEAD000237B61FB68CD
:1002100043F00103FB607B68DB68FA681A617B6866
:10022000DB681B69FB607B6901337B617A69094B81
:100230009A4200D905E0FB6803F00103DBB2012B11
:10024000EDD0032002F0CEFFFB7C18461837BD46E8
:1002500080BD00BF400D030080B489B000AFF860DE
:10026000B960FA71BB800023FB76FB68DB78002B5A
:1002700022D100237B610023FB61BB880333002B69
:1002800000DA03339B107B61FB79FA6832339B0001
:1002900013449B683B610023FB6109E0BB681A685B
:1002A0003B691A60FB690133FB61BB680433BB60C7
:1002B000FA697B699A42F1D3FB7E18462437BD4622
:1002C0005DF8047B704700BF80B489B000AFF86070
:1002D000B9601346FB800023FB61FB880333002BCE
:1002E00000DA03339B10BB61FB68D3F8D0307B612D
:1002F0000023FB6109E07B691A68BB681A60FB692F
:100300000133FB61BB680433BB60FA69BB699A4285
:10031000F1D3BB6818462437BD465DF8047B7047AF
:1003200080B487B000AF78600B46FB7000233B6160
:100330000023FB737B680022DA707B6801229A70CD
:100340007B6840229A80FB78012B13D14FF0A043A9
:100350003B617B680122DA727B6808221A707B6835
:1003600004225A707B684FF4A072DA807B68022204
:100370001A7211E0FB78002B0ED1454B3B617B6874
:100380000022DA727B680C221A707B6806225A708F
:100390007B684FF4A062DA803A697B68DA603B6977
:1003A00003F500631A467B681A6100237B611CE039
:1003B0007B695A013B69134403F510631A46796857
:1003C0007B6904339B000B449A607B695A013B694B
:1003D000134403F530631A4679687B6914339B0034
:1003E0000B445A607B6901337B617B685B781A46FA
:1003F0007B699A42DCD83B6903F580631A467B68C7
:100400005A613B6903F588631A467B68C3F8CC20C0
:1004100000237B610FE07B695A013B69134403F5BC
:10042000A0631A4679687B6922339B000B449A606B
:100430007B6901337B617B681B781A467B699A4232
:10044000E9D800237B610FE07B691A033B69134401
:1004500003F580531A4679687B6932339B000B445D
:100460009A607B6901337B617B681B781A467B69E4
:100470009A42E9D83B6903F560631A467B68C3F882
:100480000C21FB7B18461C37BD465DF8047B70478A
:100490000000044080B588B000AF78600023FB778F
:1004A0000023BB6100237B610023FB607B681B7A18
:1004B000012B4FD17B68DB689B6B7B61BB7D6FF34E
:1004C0000003BB757B685B7A002B03D0BB7D43F0D8
:1004D0001003BB757B68DB687A699A630023BB6194
:1004E0007B68DB68DB68BB613B7E6FF386133B7622
:1004F000BB7E6FF38613BB763B7E43F010033B76E7
:100500003B7E6FF3C3033B763B7E6FF3C7133B76B3
:10051000BB7E6FF34103BB76BB7E6FF3C303BB7639
:100520007B68DB68BA69DA607868FFF74FFE7B6842
:10053000DB78012B40F082803B7B052262F3440391
:100540003B733B7B43F020033B737B68DB68FA68BB
:100550009A6073E07B68DB68DB68BB613B7E43F0DD
:1005600040033B767B68DB68BA69DA607868FFF73E
:100570002DFE00237B61BB7D43F00103BB757B68CF
:100580001B7A032B03D1BB7D43F00203BB75BB7DFC
:1005900043F00403BB75BB7D43F00803BB75BB7D13
:1005A00043F02003BB757B685B7A002B03D0BB7DD7
:1005B00043F01003BB757B68DB687A699A6314208B
:1005C00002F034FE7B68DB68DB68BB617B681B7A0A
:1005D000032B03D1BB7E43F00103BB767B68DB6852
:1005E000BA69DA607B681B7A032B27D17B68DB68EA
:1005F0001B6B3B61FB7C012262F38303FB74BB7CBE
:100600006FF3C713BB74FB7C43F01003FB74BB7C1C
:100610002D2262F30603BB747B68DB683A691A63B8
:10062000C82002F003FEBB7C43F08003BB747B68F0
:10063000DB683A691A63C82002F0F8FD7B68DB7852
:10064000012B10D17B68DB689B68FB603B7B05223C
:1006500062F344033B733B7B43F020033B737B68B3
:10066000DB68FA689A60FB7F18462037BD4680BD7C
:1006700080B485B000AF78600023FB730023BB60BB
:100680003B7A43F001033B727B68DB687A68D2688F
:100690009168BA680A439A60FB7B18461437BD46D6
:1006A0005DF8047B704700BF80B485B000AF786010
:1006B0000023FB730023BB603B7A43F001033B72D2
:1006C0007B68DB687A68D2689168BA68D2430A406E
:1006D0009A60FB7B18461437BD465DF8047B704773
:1006E00080B586B000AF786039600023FB740023CA
:1006F0007B610023FB60FB6843F02003FB603B68E9
:10070000DBB203F01F03DAB2FB6862F38A13FB600B
:100710007B68DB68FA681A617B68DB681B69FB60D1
:100720007B6901337B617A69094B9A4200D906E003
:10073000FB685B0903F00103DBB2012BECD0032063
:1007400002F050FDFB7C18461837BD4680BD00BF47
:10075000400D030080B586B000AF78600023FB74C5
:1007600000237B610023FB60FB6843F01003FB6008
:100770007B68DB68FA681A617B68DB681B69FB6071
:100780007B6901337B617A69094B9A4200D906E0A3
:10079000FB681B0903F00103DBB2012BECD0032043
:1007A00002F020FDFB7C18461837BD4680BD00BF17
:1007B000400D030080B584B000AF78600B46FB703D
:1007C0000023FB737B68DB68DB68BB60FB7A6FF33D
:1007D0004513FB72FB7A6FF38613FB72FB78012BD8
:1007E00004D1FB7A43F02003FB7206E0FB78002B78
:1007F00003D1FB7A43F04003FB727B68DB68BA6885
:10080000DA60322002F012FDFB7B18461037BD463D
:1008100080BD00BF80B483B000AF78607B68DB68C8
:100820005B6903F0010318460C37BD465DF8047B95
:10083000704700BF80B582B000AF78607868FFF77E
:10084000E9FF0346012B0CBF00230123DBB218464E
:100850000837BD4680BD00BF80B485B000AF78606A
:100860000023FB607B68DB685B69FB607B68DB689F
:100870009B69FA681340FB60FB6818461437BD4655
:100880005DF8047B704700BF80B485B000AF78602E
:100890000B46FB707B681B691B68FB60FB7803F0F1
:1008A0000303DAB23B7B62F301033B737B681B6992
:1008B000FA681A601437BD465DF8047B704700BFC4
:1008C00080B58CB000AF7860002387F82B30002310
:1008D0007B6200233B620023FB610023BB6100239A
:1008E0007B617B68D3F80C3100221A607B681B693E
:1008F0001B683B6297F821306FF3C40387F82130FF
:100900007B681B693A6A1A607B68DB7A012B40D1ED
:1009100078680321FFF7B8FF7B68DB6880225A62A2
:10092000FB8B402262F30F03FB83BB8B802262F3BD
:100930000F03BB837B68DB68FA699A62BA8BFB8B17
:1009400013449BB23B837B8B802262F30F037B8338
:100950007B68DB68BA69C3F804213A8B7B8B13444C
:100960009BB23B837B8B6FF30F037B837B68DB68DE
:10097000BA69C3F808213A8B7B8B13449BB23B8343
:100980007B8B6FF30F037B837B68DB68BA69C3F8EB
:100990000C2178681021FFF7A3FE7868FFF7DAFED4
:1009A0007B681B6900221A617B681B6900225A61FF
:1009B0007B681B694FF0FF329A617B681B690022DC
:1009C000DA610023FB623AE07A68FB6A04339B0039
:1009D00013449B681B687B6297F82730C3F3C013EE
:1009E000DBB2002B0ED000237B6297F8273043F058
:1009F000400387F8273097F8273043F0080387F83B
:100A0000273001E000237B627A68FB6A04339B0095
:100A100013449B687A6A1A607A68FB6A04339B0005
:100A200013449B6800221A617A68FB6A04339B00B6
:100A300013449B68FF229A60FB6A0133FB627B6868
:100A40005B781A46FB6A9A42BED80023FB6235E007
:100A50007A68FB6A14339B0013445B681B68FB6075
:100A6000FB7BC3F3C013DBB2002B0AD00023FB6077
:100A7000FB7B43F04003FB73FB7B43F00803FB73FA
:100A800001E00023FB607A68FB6A14339B00134487
:100A90005B68FA681A607A68FB6A14339B00134437
:100AA0005B6800221A617A68FB6A14339B00134466
:100AB0005B68FF229A60FB6A0133FB627B685B78AC
:100AC0001A46FB6A9A42C3D800237B617B7D43F0C0
:100AD00001037B757B681B697A68126911697A6901
:100AE000D24311407A690A431A617B68DB78012B93
:100AF0001BD100233B613B7C43F001033B743B7CF7
:100B000043F002033B743B8A402262F38A033B8238
:100B1000BB7C43F00103BB747B8A402262F3490330
:100B20007B827B681B693A691A63786800F006F873
:100B300097F82B3018463037BD4680BD80B584B05D
:100B400000AF78600023FB730023BB607B68DB6829
:100B500000229A617B68DB684FF0FF325A61786847
:100B6000FFF712FB7B68DB78002B03D13B7A43F065
:100B700010033B727B7A43F008037B727B7A43F06D
:100B800010037B727B7A43F020037B72BB7A43F0C5
:100B90000403BB72BB7A43F00803BB723B7A43F099
:100BA00008033B72BB7A43F01003BB72BB7A43F07D
:100BB0002003BB727B68DB687A68D2689169BA6887
:100BC000D2431140BA680A439A61FB7B184610373A
:100BD000BD4680BD80B485B000AF78600023FB7354
:100BE0007B681B699B68BB603B7AC3F34103DBB244
:100BF000022B09D0032B04D0012B02D00323FB735B
:100C000005E00223FB7302E00123FB7300BFFB7BC3
:100C100018461437BD465DF8047B704780B487B032
:100C200000AF78600023FB750023BB607B681B6905
:100C30009B683B617B689B691B68FB603B7CC3F3E3
:100C40004103DBB2022B04D0BB896FF30A03BB81E3
:100C500005E0BB89032262F30A03BB8100BF7B6806
:100C60009B69FA681A607B7A43F001037B727B68A8
:100C70001B697A6812695168BA68D2431140BA6830
:100C80000A435A60FB7D18461C37BD465DF8047B5D
:100C9000704700BF80B487B000AF78603960002330
:100CA000FB740023FB600023BB603B685B78012B77
:100CB0000FD13B681B787A6804339B0013449B6810
:100CC0007B613B681B78012202FA03F39BB23B81F4
:100CD0000EE03B681B787A6814339B0013445B6812
:100CE0007B613B681B78012202FA03F39BB27B8194
:100CF0007B691B68FB607B7BC3F3C013DBB2002BFB
:100D000027D13B689B689BB2C3F30A039AB2BB89A5
:100D100062F30A03BB813B68DB7803F00303DAB2BA
:100D2000BB7B62F38303BB733B68DB88DBB203F0FE
:100D30000F03DAB2FB8962F38913FB81FB7B43F07B
:100D40001003FB737B7B43F080037B73FA687B6942
:100D50001A607B681B697A681269D169BA680A43AC
:100D6000DA61FB7C18461C37BD465DF8047B704792
:100D700080B487B000AF786039600023FB74002333
:100D8000FB600023BB603B685B78012B0FD13B68A5
:100D90001B787A6804339B0013449B687B613B6833
:100DA0001B78012202FA03F39BB23B810EE03B6801
:100DB0001B787A6814339B0013445B687B613B6843
:100DC0001B78012202FA03F39BB27B817B7B6FF3DA
:100DD000C7137B73FA687B691A607B681B697A6842
:100DE0001269D169BA68D2430A40DA61FB7C1846BD
:100DF0001C37BD465DF8047B704700BF80B588B0E6
:100E000000AF786039600023FB770023BB610023CB
:100E10007B6100233B613B685B78012B40F0AB803A
:100E20003B681B787A6804339B0013449B681B68FB
:100E30007B613B681B787A6804339B0013449B6892
:100E40001B693B613B685B69002B09D13B696FF310
:100E500012033B617B8A012262F3CC037B8222E096
:100E60003B685B69C3F312023B6962F312033B61A7
:100E70003B685A693B689B6813445A1E3B689B68F1
:100E8000B2FBF3F39BB2C3F309039AB27B8A62F31A
:100E9000CC037B823B68DB78012B04D1FB7C0122F5
:100EA00062F34613FB743B681B787A6804339B003B
:100EB00013449B683A691A617B68DB78012B0AD17D
:100EC0003B681B787A6804339B0013449B683A683C
:100ED00012695A6115E03B68DB78012B11D03B6841
:100EE0005B69002B0DD03B681B78012202FA03F3EB
:100EF000BB617B681B697A681269516BBA690A43E6
:100F00005A633B68DB78012B14D17B681B699B68B3
:100F1000FB60FB68C3F30D239BB203F00103002BBE
:100F200004D1FB7D43F02003FB7503E0FB7D43F020
:100F30001003FB75FB7D43F00403FB75FB7D43F061
:100F40008003FB753B681B787A6804339B0013446D
:100F50009B687A691A603B68DB78012B40F08880D7
:100F60003B68D9683B681A783B685B699BB27868D4
:100F7000FFF772F97CE03B681B787A6814339B00BA
:100F800013445B681B687B613B681B787A68143389
:100F90009B0013445B681B693B613B685B69002BEA
:100FA0000DD13B689B68C3F312023B6962F31203E5
:100FB0003B617B8A012262F3CC037B821FE03B68AA
:100FC0005A693B689B6813445A1E3B689B68B2FB96
:100FD000F3F39BB2C3F309039AB27B8A62F3CC03A7
:100FE0007B827B8AC3F3C9039BB23A68926802FB97
:100FF00003F3C3F312023B6962F312033B613B68E4
:101000001B787A6814339B0013445B683A691A6151
:101010007B68DB78012B09D13B681B787A68143335
:101020009B0013445B683A6812695A613B68DB783D
:10103000012B0CD13B685B79002B04D0FB7D43F086
:101040002003FB7503E0FB7D43F01003FB75FB7D84
:1010500043F00403FB75FB7D43F08003FB753B68A5
:101060001B787A6814339B0013445B687A691A60B2
:10107000FB7F18462037BD4680BD00BF80B489B0D5
:1010800000AF786039600023FB770023BB61002349
:101090003B610023BB603B685B78012B6FD17B68B1
:1010A0009B697B617B691B683B617B691B69BB60DA
:1010B0003B685B69002B09D13B7A6FF306033B72F7
:1010C000BB7A012262F3C403BB7223E03B685A6916
:1010D0003B689B689A420ED93B689A683B685A61A4
:1010E0003B689B68DBB203F07F03DAB23B7A62F3C2
:1010F00006033B7209E03B685B69DBB203F07F03E8
:10110000DAB23B7A62F306033B72BB7A012262F3E6
:10111000C403BB72BA687B691A617B68DB78012BF8
:1011200009D13B681B787A6804339B0013449B68A1
:101130003A6812695A61FB7C43F00403FB74FB7C40
:1011400043F08003FB743A697B691A607B68DB7843
:10115000002B75D13B685B69002B71D03B681B7815
:10116000012202FA03F3BA691343BB617B681B696E
:101170007A681269516BBA690A435A6360E03B6846
:101180001B787A6814339B0013445B681B683B61CF
:101190003B681B787A6814339B0013445B681B69B7
:1011A000BB603B685B69002B0FD13B689B68DBB27F
:1011B00003F07F03DAB23B7A62F306033B72BB7A39
:1011C000012262F3C403BB7212E03B689A683B6879
:1011D0005A613B689B68DBB203F07F03DAB23B7A6B
:1011E00062F306033B72BB7A012262F3C403BB7253
:1011F0003B681B787A6814339B0013445B68BA68B9
:101200001A617B68DB78012B09D13B681B787A680F
:1012100014339B0013445B683A6812695A61FB7C83
:1012200043F00403FB74FB7C43F08003FB743B68D6
:101230001B787A6814339B0013445B683A691A6020
:10124000FB7F18462437BD465DF8047B704700BF1E
:1012500080B487B000AF786039600023FB7500234D
:10126000FB603B685B78012B1CD13B681B787A687C
:1012700004339B0013449B683B613B691B68FB6024
:10128000FB7BC3F3C013DBB2002B03D0FB7B43F02B
:101290004003FB73BB7B43F02003BB73FA683B69DD
:1012A0001A6011E03B681B787A6814339B00134482
:1012B0005B683B613B691B68FB60BB7B43F02003C1
:1012C000BB73FA683B691A60FB7D18461C37BD4644
:1012D0005DF8047B704700BF80B487B000AF7860D2
:1012E00039600023FB740023FB603B685B78012BB3
:1012F00008D13B681B787A6804339B0013449B68D1
:101300007B6107E03B681B787A6814339B001344C9
:101310005B687B617B691B68FB60BB7B6FF345137C
:10132000BB733B68DB78032B03D03B68DB78022B75
:1013300003D1FB7B43F01003FB73FA687B691A60EF
:10134000FB7C18461C37BD465DF8047B704700BF28
:1013500080B485B000AF78607B681B699B69FB60D7
:101360007B681B69DB69FA681340FB60FB681B0C38
:1013700018461437BD465DF8047B704780B485B0CD
:1013800000AF78600B46FB70FB787A6814339B00E3
:1013900013445B689B68FB607B681B695B69FA6848
:1013A0001340FB60FB6818461437BD465DF8047BAC
:1013B000704700BF80B485B000AF78607B681B6960
:1013C0009B69FB607B681B69DB69FA681340FB6003
:1013D000FB689BB218461437BD465DF8047B704726
:1013E00080B487B000AF786000233B61FB7C43F0A2
:1013F000C003FB74BB7C012262F3C403BB743B7C5F
:10140000182262F306033B747B685B6D3A691A61CC
:101410007B68DB78012B16D10023FB607B685B6D5A
:101420007A6802F5B9625A617B685B6D1B68FB6084
:10143000FB7B43F08003FB734FF08023FB607B68F2
:101440005B6DFA681A601C37BD465DF8047B704717
:1014500080B485B000AF78607B689B7A002B1BD08E
:101460007B681B699B68FB603B7BC3F30003DBB2BB
:10147000012B11D17B6803F586731B68BB603B7A37
:101480006FF341033B723B7A6FF300033B727B685F
:10149000D3F80C31BA681A601437BD465DF8047B86
:1014A000704700BF80B584B000AF39600146F97164
:1014B000BA80BB713A68254B9A4204D101200121C0
:1014C00001F026F922E03A68214B9A4204D1022029
:1014D000012101F01DF919E03A681E4B9A4204D12E
:1014E0000420012101F014F910E03A681A4B9A42E5
:1014F00004D10820012101F00BF907E03A68174BED
:101500009A4203D11020012101F002F907F10803EA
:10151000184601F051FBBB88BB60FB793B733B7EF7
:10152000BB73BB79FB7303237B7307F10803386834
:10153000194601F0B3FAFB79012B04D1BB88386856
:10154000194601F053FB1037BD4680BD0000024034
:101550000004024000080240000C0240001002405B
:1015600080B400AFBD465DF8047B704780B483B0A3
:1015700000AF0346FB71FB79002B02D0012B02D098
:1015800002E000BF00E000BF0C37BD465DF8047B01
:10159000704700BF80B400AFBD465DF8047B704764
:1015A00080B400AFBD465DF8047B704780B400AFE7
:1015B000BD465DF8047B704780B400AFBD465DF862
:1015C000047B704780B400AFBD465DF8047B704774
:1015D00080B500AF0E4B1B889BB21B099BB2002B42
:1015E00005D00C4B1B685A1C0A4B1A600BE0084BC9
:1015F0001B889BB21B099BB2002B04D1064B1B68B6
:101600005A1C054B1A600248012103F073FF80BD8C
:1016100000000140780500207405002080B500AF6F
:101620004FF080431B889BB21B099BB2002B05D057
:101630000C4B1B685A1C0B4B1A600CE04FF080439C
:101640001B889BB21B099BB2002B04D1064B1B6865
:101650005A1C054B1A604FF08040012103F04AFFED
:1016600080BD00BF800500207C05002080B500AF54
:101670000E4B1B889BB21B099BB2002B05D00C4B59
:101680001B685A1C0A4B1A600BE0084B1B889BB264
:101690001B099BB2002B04D1064B1B685A1C054B3F
:1016A0001A600248012103F025FF80BD00040040BC
:1016B000880500208405002080B500AF0E4B1B88F4
:1016C0009BB21B099BB2002B05D00C4B1B685A1C0C
:1016D0000A4B1A600BE0084B1B889BB21B099BB29C
:1016E000002B04D1064B1B685A1C054B1A6002489C
:1016F000012103F0FFFE80BD00080040900500209E
:101700008C05002080B500AF0E4B1B889BB21B09D7
:101710009BB2002B05D00C4B1B685A1C0A4B1A605D
:101720000BE0084B1B889BB21B099BB2002B04D11A
:10173000064B1B685A1C054B1A600248012103F036
:10174000D9FE80BD000C00409805002094050020C3
:1017500080B500AF0E4B1B889BB21B099BB2002BC0
:1017600005D00C4B1B685A1C0A4B1A600BE0084B47
:101770001B889BB21B099BB2002B04D1064B1B6834
:101780005A1C054B1A600248012103F0B3FE80BDCC
:1017900000040140A00500209C05002080B582B017
:1017A00000AF0346FB71FB79184601F00BFB0837CD
:1017B000BD4680BD80B582B002AF054B00930548A1
:1017C0000121054A054B00F09DFCBD4680BD00BFD0
:1017D00000000020C40600205C000020140100204E
:1017E00080B483B000AF0123FB8000233B6000BFC7
:1017F0003B685A1C3A600B4A9342F9D90A4BFA8863
:10180000120392B25A83FB885B00FB80FB880F2B8C
:1018100001D90123FB80044BFA88120392B21A8388
:10182000E3E700BF1FA10700000C024080B400AF37
:10183000BD465DF8047B704780B500AFFFF7D0FF71
:1018400080BD00BF80B500AFFFF7CAFF80BD00BFFD
:1018500080B500AFFFF7C4FF80BD00BF80B500AF0B
:10186000FFF7BEFF80BD00BF80B400AFBD465DF88E
:10187000047B704780B400AFBD465DF8047B7047C1
:1018800080B400AFBD465DF8047B704780B500AF03
:10189000014802F071F980BDC406002080B500AF98
:1018A000094B9B7A002B0AD0084B084A126822F099
:1018B00006021A6001F0FCFA0348FFF7C9FD4FF475
:1018C000802003F0D5F880BDC406002010ED00E0B4
:1018D00080B58AB000AF7860396000237B62002356
:1018E0003B620023FB610023BB617B681B8A9BB2C8
:1018F0007B627B6A23F440537B623B68DB887A6AB5
:1019000013437B627B6A9AB27B681A827B689B89ED
:101910009BB27B627B6A23F4B05323F00C037B629F
:101920003B689A883B681B8913439AB23B685B8982
:1019300013439BB27A6A13437B627B6A9AB27B68D9
:101940009A817B689B8A9BB27B627B6A23F440739B
:101950007B623B689B897A6A13437B627B6A9AB29B
:101960007B689A8207F10803184600F027FE7A6820
:10197000314B9A4203D07A68304B9A4202D17B694C
:101980003B6201E03B693B627B689B899BB29BB2F7
:101990001BB2002B0CDA3A6A13469B0013449A00E0
:1019A0001A443B681B685B00B2FBF3F3FB610BE07E
:1019B0003A6A13469B0013449A001A443B681B681A
:1019C0009B00B2FBF3F3FB61FA691D4BA3FB02130F
:1019D0005B091B017B627B6A1B09642202FB03F328
:1019E000FA69D31ABB617B689B899BB29BB21BB21D
:1019F000002B0DDABB69DB0003F13202104BA3FBB5
:101A000002135B0903F007037A6A13437B620CE05D
:101A1000BB691B0103F13202094BA3FB02135B09F3
:101A200003F00F037A6A13437B627B6A9AB27B6886
:101A30001A812837BD4680BD0010014000140140C6
:101A40001F85EB5180B483B000AF78600B46FB700C
:101A5000FB78002B08D07B689B899BB243F4005332
:101A60009AB27B689A8107E07B689B899BB223F4DA
:101A700000539AB27B689A810C37BD465DF8047BAF
:101A8000704700BF80B483B000AF78607B689B88EC
:101A90009BB2C3F308039BB218460C37BD465DF8F2
:101AA000047B704780B487B000AF786013460A4665
:101AB0007A807B7000233B610023FB600023BB60C6
:101AC00000237B617B687B617B88DBB25B09DBB2D7
:101AD0003B617B8803F01F03FB60FB68012202FA75
:101AE00003F3BB603B69012B03D17B690C337B6142
:101AF00009E03B69022B03D17B6910337B6102E073
:101B00007B6914337B617B78002B06D07B697A6913
:101B10001168BA680A431A6006E07B697A6911683D
:101B2000BA68D2430A401A601C37BD465DF8047B90
:101B3000704700BF0000000080B588B000AF78603B
:101B400039600023FB6107F1080300221A600433A7
:101B500000221A60043300221A60043300221A6043
:101B6000043300221A6004333B68002B03D17B68E6
:101B7000302098474DE00023FB6126E03968284B70
:101B8000A3FB0123DA0813469B0013445B00CA1A27
:101B9000D2B207F10801FB690B441A70386805F0EE
:101BA00033FD02460B46104619461BA3D3E900231A
:101BB00005F0A0FD02460B461046194606F034F823
:101BC00003463B60FB690133FB613B68002B0CBFA4
:101BD00000230123DAB2FB69132BCCBF00230123BE
:101BE000DBB21340DBB2002BC8D1FB69013BFB61C8
:101BF0000CE007F10802FB6913441B783033DAB2BA
:101C00007B6810469847FB69013BFB61FB69002B31
:101C1000EFDA2037BD4680BD9A9999999999B93FD5
:101C2000CDCCCCCCAFF3008080B582B000AF786073
:101C300039603B68002B09DA7B682D2098473B68A8
:101C40005B4278681946FFF777FF04E03B687868E5
:101C50001946FFF771FF0837BD4680BD0000000040
:101C6000B0B52DED028B88B000AF786087ED000A2B
:101C70000323BB610023FB6100237B614FF0000362
:101C8000FB604FF000033B6107F10C0397ED000A86
:101C9000184603F03FFC87ED040AD7ED037AFDEE0A
:101CA000E77A17EE903A78681946FFF7BDFF7B6830
:101CB0002E209847D7ED047AB0EEE78ABB6907EE8D
:101CC000103AF8EEC77AB2EE040AF0EE670A03F0B3
:101CD00019FEF0EE407A68EE277AB0EE670A03F05C
:101CE00047FCF0EE407AFDEEE77A17EE903A7B6122
:101CF0000123FB6105E07B6830209847FB690133D5
:101D0000FB61BA69FB69D31A184605F08DFC0246DF
:101D10000B469FED110B43EC112B03F053FC55ECDC
:101D2000104B786905F080FC02460B462046294698
:101D300005F070FF0346002B03D0FA69BB699A4295
:101D4000D9DB78687969FFF76FFF2037BD46BDECB6
:101D5000028BB0BDAFF30080000000000000244003
:101D600080B584B000AF786039600023FB60002349
:101D7000FB6009E0FB683A6813441A787B681046F8
:101D80009847FB680133FB60FB683A6813441B7893
:101D9000002B02D0FB68132BECDD1037BD4680BD55
:101DA00080B582B000AF78607B680D2098477B6873
:101DB0000A2098470837BD4680BD00BF80B584B073
:101DC00000AFF860B96087ED010AF868B968FFF7FD
:101DD000C7FFFB682C209847F86897ED010AFFF7CA
:101DE0003FFFFB682C2098471037BD4680BD00BFE1
:101DF00080B582B000AF034687ED000AFB71FB7926
:101E0000184697ED000A012100F01AF80837BD4680
:101E100080BD00BF80B582B000AF0346FB71FB7987
:101E200018469FED060A002100F00AF8F0EE407A0D
:101E3000B0EE670A0837BD4680BD00BF0000000055
:101E400080B487B000AF034687ED020A7960FB7368
:101E50004FF000037B61FB7B602B19D9FB7B7A2B56
:101E600016D87B68012B07D1FB7B613B1B4A9B008B
:101E70001344BA681A600AE07B68002B07D1FB7B29
:101E8000613B164A9B0013441B687B611BE01AE010
:101E9000FB7B402B17D9FB7B5A2B14D87B68012B7B
:101EA00007D1FB7B413B0E4A9B001344BA681A6082
:101EB00009E07B68002B06D1FB7B413B084A9B0075
:101EC00013441B687B617B6907EE903AB0EE670AAA
:101ED0001C37BD465DF8047B704700BFA405002099
:101EE0000C060020000000002DE9B04384B000AFD4
:101EF0000346FB710023FB60FB79232B1BD15E4B58
:101F00001B68012B07D15D4BD3ED007AF1EE677AA8
:101F10005A4BC3ED007A5A4B1B78584AD2ED007ADF
:101F20001846B0EE670AFFF763FF0123FB60544BCE
:101F300000221A7087E0FB792F2B52D9FB79392BBD
:101F40004FD8504B00221A604F4B1B68002B12D108
:101F50004A4B93ED007AF2EE047A27EE277AFB796A
:101F6000303B06EE903AF8EEE67A77EE277A434B6E
:101F7000C3ED007A67E0454B1B685A1C434B1A605F
:101F80003E4B1B68184605F061FB04460D46FB7985
:101F9000303B184605F048FB804689463B4B1B68A2
:101FA000184605F041FB02460B469FED310B43EC12
:101FB000112B03F007FB53EC102B4046494605F06C
:101FC00099FB02460B462046294605F0E1F90246F8
:101FD0000B461046194605F047FE0246274B1A608D
:101FE00031E0FB79602B02D9FB797A2B05D9FB799B
:101FF000402B0BD9FB795A2B08D80123FB60204BCF
:10200000FA791A701F4B01221A601CE0FB792D2B04
:102010000FD11C4B1B68012B0BD1174B1B68002BDE
:1020200003D1154B01221A600DE0134B00221A60F8
:1020300009E0FB792E2B06D1124B1B68002B02D135
:10204000114B01221A60FB68012B0CD10B4B4FF096
:1020500000021A600D4B00221A600B4B00221A601E
:10206000054B00221A601037BD46BDE8B08300BFA3
:102070009A9999999999B93F740600207806002099
:102080007C060020800600208406002088060020B0
:1020900080B582B000AF134B7B60134B3B6007E011
:1020A0003B681A1D3A607A68111D796012681A60DF
:1020B0003A680E4B9A42F3D30D480E494FF0000296
:1020C0008842B8BF40F8042BFFF6FAAFDFF82800CB
:1020D000016841F47001016000F012FA0837BD4652
:1020E00080BD00BF447E0008000000207405002071
:1020F000740500200C16002088ED00E080B400AFCD
:10210000FEE700BF80B584B000AFF8607A603B6046
:102110000B46FB72F86800F0F5FFF86800F01CF859
:10212000FB683A68C3F8E025FB68BA69C3F8E425A0
:10213000FB687A68C3F8E825FB7AF868194602F06C
:10214000A5FEFB68D3F8E4351B689847F86801F0F2
:1021500031F81037BD4680BD80B483B000AF7860E1
:10216000002318460C37BD465DF8047B704700BF5E
:1021700080B584B000AF786007F10803786819462D
:1021800001F03AFC3B7A03F01F03012B0AD0022B2B
:102190000FD0002B14D107F108037868194601F01D
:1021A00055F816E007F108037868194601F09EF823
:1021B0000FE007F108037868194601F0CBF808E052
:1021C0003B7A23F07F03DBB27868194602F0E0FF28
:1021D00000BF002318461037BD4680BD80B584B0CF
:1021E00000AF78600B46FB70FB78002B45D17B6815
:1021F00003F55C73FB607B6893F81131032B4FD1BF
:10220000FB68DA69FB689B689A4221D9FB68DA6946
:10221000FB689B68D21AFB68DA617B68DB78012B6C
:1022200006D1FB68DA68FB689B681A44FB68DA60D1
:10223000FB68DA68FB689968FB68DB69994238BF1C
:102240000B469BB2786811461A4603F087F827E0E0
:102250007B68D3F8E0351B69002B0AD07B6893F8C4
:102260001231032B05D17B68D3F8E0351B69786800
:102270009847786803F086F812E07B68D3F8E03579
:102280009B69002B0CD07B6893F81231032B07D18C
:102290007B68D3F8E0359B69FA78786811469847EF
:1022A000002318461037BD4680BD00BF80B584B0FE
:1022B00000AF78600B46FB70FB78002B60D17B6829
:1022C00003F58C73FB607B6893F81131022B6AD1A4
:1022D000FB68DA69FB689B689A421CD9FB68DA697B
:1022E000FB689B68D21AFB68DA617B68DB78012B9C
:1022F00006D1FB68DA68FB689B681A44FB68DA6001
:10230000FB68DA68FB68DB699BB2786811461A469D
:1023100002F0F0FF47E0FB681B6AFA689268B3FBC3
:10232000F2F102FB01F29B1A002B14D1FB681A6A2E
:10233000FB689B689A420ED3FB681A6AFB685B6A6B
:102340009A4208D278680021002202F0D3FFFB688D
:1023500000225A6227E07B68D3F8E035DB68002B67
:102360000AD07B6893F81231032B05D17B68D3F830
:10237000E035DB6878689847786803F01BF812E06E
:102380007B68D3F8E0355B69002B0CD07B6893F851
:102390001231032B07D17B68D3F8E0355B69FA78FB
:1023A000786811469847002318461037BD4680BD0F
:1023B00080B582B000AF78607868002140220023A9
:1023C00002F0E4FD786880214022002302F0DEFD67
:1023D0007B68012283F812217B68D3F8E4355B68BF
:1023E0007A68927810469847002318460837BD4609
:1023F00080BD00BF80B582B000AF78607B68D3F845
:10240000E4351B6998477B68032283F81221002377
:1024100018460837BD4680BD80B582B000AF7860F1
:102420007B68042283F812217B68D3F8E435DB68EB
:102430009847002318460837BD4680BD80B582B056
:1024400000AF78607B68D3F8E035DB69002B05D0FE
:102450007B68D3F8E035DB69786898470023184635
:102460000837BD4680BD00BF80B582B000AF786040
:102470000B46FB707B68D3F8E0351B68FA78786808
:10248000114698477B68D3F8E4359B68984700234A
:1024900018460837BD4680BD80B582B000AF786071
:1024A0000B46FB707B68D3F8E0355B68FA78786898
:1024B00011469847002318460837BD4680BD00BF27
:1024C00080B582B000AF78607B68D3F8E0351B6AD6
:1024D00078689847002318460837BD4680BD00BF7E
:1024E00080B582B000AF78607B68D3F8E0355B6A76
:1024F00078689847002318460837BD4680BD00BF5E
:1025000080B586B002AF00F0D3FC9FED240A00F046
:10251000A3FA234B00934FF40073019321484FF427
:10252000E1311F4A4FF4807302F076FFFFF742F962
:102530004FF00003FB604FF00003BB604FF000035F
:102540007B60194B1B68042B27DD174B00221A6098
:102550006120FFF75FFC87ED030A6220FFF75AFC5A
:1025600087ED020A6320FFF755FC87ED010A0F484B
:102570000F4997ED030AFFF721FC0C480D4997ED31
:10258000020AFFF71BFC09480B4997ED010AFFF708
:1025900015FC0648FFF704FCD3E7D2E76F12833A35
:1025A000000C0240004800408C0600209D170008E7
:1025B0001C7D0008287D0008347D000880B489B0A7
:1025C00000AF78600023BB6100237B610023FB61C7
:1025D00002233B610023FB600223BB60484B9B68E6
:1025E00003F00C03BB61BB69042B07D0082B09D097
:1025F000002B3FD17B68434A1A603FE07B68424A28
:102600001A603BE03E4B5B6803F480039B0DFB606C
:102610003B4B5B6803F03F03BB60FB68002B0DD0B6
:10262000394ABB68B2FBF3F2354B596847F6C073C1
:102630000B409B0903FB02F3FB610CE0314ABB68D2
:10264000B2FBF3F22E4B596847F6C0730B409B095F
:1026500003FB02F3FB612A4B5B6803F440331B0C62
:1026600001335B003B61FA693B69B2FBF3F27B68C3
:102670001A6003E07B68234A1A6000BF204B9B6806
:1026800003F0F003BB61BB691B09BB611F4ABB6957
:1026900013441B78DBB27B617B681A687B69DA4084
:1026A0007B685A60164B9B6803F4E053BB61BB69BF
:1026B0009B0ABB61154ABB6913441B78DBB27B6183
:1026C0007B685A687B69DA407B689A600C4B9B6830
:1026D00003F46043BB61BB695B0BBB610B4ABB6925
:1026E00013441B78DBB27B617B685A687B69DA40F4
:1026F0007B68DA602437BD465DF8047B704700BF15
:10270000003802400024F40000127A004C0000203F
:1027100080B483B000AF78600B46FB70FB78002B71
:1027200006D0094B084A116B7A680A431A6306E01F
:10273000054B054A116B7A68D2430A401A630C377D
:10274000BD465DF8047B70470038024080B483B01A
:1027500000AF78600B46FB70FB78002B06D0094B6E
:10276000084A516B7A680A435A6306E0054B054AEA
:10277000516B7A68D2430A405A630C37BD465DF804
:10278000047B70470038024080B483B000AF7860AB
:102790000B46FB70FB78002B06D0094B084A116CE6
:1027A0007A680A431A6406E0054B054A116C7A6898
:1027B000D2430A401A640C37BD465DF8047B70476B
:1027C0000038024080B483B000AF78600B46FB70E5
:1027D000FB78002B06D0094B084A516C7A680A43F3
:1027E0005A6406E0054B054A516C7A68D2430A40A8
:1027F0005A640C37BD465DF8047B704700380240D0
:1028000080B483B000AF78600B46FB70FB78002B80
:1028100006D0094B084A116A7A680A431A6206E030
:10282000054B054A116A7A68D2430A401A620C378E
:10283000BD465DF8047B70470038024080B483B029
:1028400000AF03463960FB713B6812221A80034BCC
:1028500018460C37BD465DF8047B704778000020B1
:1028600080B483B000AF03463960FB713B6804223B
:102870001A80034B18460C37BD465DF8047B704741
:102880009800002080B582B000AF03463960FB712C
:10289000FB79002B05D1084808493A6801F016F980
:1028A00004E0074805493A6801F010F9034B18465F
:1028B0000837BD4680BD00BF407D00084C0D00209C
:1028C000647D000880B582B000AF03463960FB71BB
:1028D000044805493A6801F0F9F8034B18460837EF
:1028E000BD4680BD887D00084C0D002080B582B0BB
:1028F00000AF03463960FB71FB79002B05D1084816
:1029000008493A6801F0E2F804E0074805493A68E6
:1029100001F0DCF8034B18460837BD4680BD00BF08
:102920009C7D00084C0D0020AC7D000880B582B075
:1029300000AF03463960FB71FB79002B05D10848D5
:1029400008493A6801F0C2F804E0054805493A68C8
:1029500001F0BCF8034B18460837BD4680BD00BFE8
:10296000BC7D00084C0D002080B582B000AF03464E
:102970003960FB71FB79002B05D1084808493A689A
:1029800001F0A4F804E0054805493A6801F09EF812
:10299000034B18460837BD4680BD00BFC87D000800
:1029A0004C0D002080B483B000AF03463960FB714A
:1029B00097F90730002B0BDA0D49FB7903F00F0371
:1029C000043B3A68D2B21201D2B20B441A7609E043
:1029D000084997F907303A68D2B21201D2B20B44D3
:1029E00083F800230C37BD465DF8047B704700BFB9
:1029F00000ED00E000E100E080B582B000AF78605B
:102A00007B68B3F1807F01D3012311E00A4B7A6820
:102A100022F07F42013A5A604FF0FF300F21FFF75A
:102A2000C1FF054B00229A60034B07221A60002366
:102A300018460837BD4680BD10E000E080B400AF06
:102A4000044B1B685A1C034B1A60BD465DF8047B9F
:102A5000704700BF8C06002080B582B000AF87EDC4
:102A6000010A00F059FA4FF0FF300121FFF79AFFF9
:102A7000094B1B6807EE903AB8EE677AD7ED017AFA
:102A800067EE277AFCEEE77A17EE903A1846FFF7E2
:102A9000B3FF0837BD4680BDB800002080B487B0C2
:102AA00000AF7860396000237B6100233B61002325
:102AB000FB6000237B6176E07B69012202FA03F36D
:102AC0003B613B681A683B691340FB60FA683B69ED
:102AD0009A4265D17B681A687B695B00032101FA21
:102AE00003F3DB431A407B681A607B681A683B6813
:102AF0001B7919467B695B0001FA03F31A437B6873
:102B00001A603B681B79012B03D03B681B79022BB1
:102B10002ED17B689A687B695B00032101FA03F37D
:102B2000DB431A407B689A607B689A683B685B79F4
:102B300019467B695B0001FA03F31A437B689A60CC
:102B40007B685A687B699BB2012101FA03F3DB437E
:102B50001A407B685A607B685A683B689B791946C3
:102B60007B699BB201FA03F39BB21A437B685A60FC
:102B70007B68DA687B699BB25B00032101FA03F38F
:102B8000DB431A407B68DA607B68DA683B68DB7994
:102B900019467B695B0001FA03F31A437B68DA602C
:102BA0007B6901337B617B690F2B85D91C37BD465F
:102BB0005DF8047B704700BF80B483B000AF7860DD
:102BC0007B684FF6FF721A607B6800221A717B687F
:102BD00000225A717B6800229A717B680022DA71A8
:102BE0000C37BD465DF8047B704700BF80B483B0EE
:102BF00000AF78600B467B807B687A885A830C37FD
:102C0000BD465DF8047B704780B485B000AF786046
:102C100013460A467A807B700023FB600023BB606A
:102C20007A787B8803F007039B0002FA03F3FB60CA
:102C30007B88DB089BB21A467B88DB089BB219466F
:102C40007B68083153F821107B8803F007039B0051
:102C50000F2000FA03F3DB4319407B68083243F886
:102C600022107B88DB089BB21A467B68083253F837
:102C70002220FB681343BB607B88DB089BB21A46AB
:102C80007B680832B96843F822101437BD465DF8F6
:102C9000047B704780B400AF00231846BD465DF842
:102CA000047B704780B400AF00231846BD465DF832
:102CB000047B704780B485B000AFF860B9607A607B
:102CC000FB68232B74D801A252F823F0B12D000821
:102CD000B12D0008B12D0008B12D0008B12D00085C
:102CE000B12D0008B12D0008B12D0008B12D00084C
:102CF000B12D0008B12D0008B12D0008B12D00083C
:102D0000B12D0008B12D0008B12D0008B12D00082B
:102D1000B12D0008B12D0008B12D0008B12D00081B
:102D2000B12D0008B12D0008B12D0008B12D00080B
:102D3000B12D0008B12D0008B12D0008B12D0008FB
:102D4000B12D0008B12D0008B12D0008B12D0008EB
:102D50005D2D0008B12D0008B12D0008184B1B682F
:102D6000DAB2BB681A70BB680133154A1268120ADE
:102D7000D2B21A70BB680233114A1268120CD2B276
:102D80001A70BB6803330E4A1268120ED2B21A7060
:102D9000BB6804330A4A12791A70BB680533084AC3
:102DA00052791A70BB680633054A92791A7000E0AE
:102DB00000BF002318461437BD465DF8047B7047FA
:102DC0009C00002080B582B000AF0346FB71FB1D64
:102DD0001846012100F004F80837BD4680BD00BF49
:102DE00080B485B000AF786039600023FB6017E0E5
:102DF000114B1B687968FA680A4411780F4AD1545C
:102E00000D4B1B685A1C0C4B1A60FB680133FB60AE
:102E1000094B1B68B3F5006F02D1074B00221A6003
:102E2000FA683B689A42E3D3002318461437BD463C
:102E30005DF8047B704700BFA40600200C0E002044
:102E400080B485B000AF786039600023FB601EE07D
:102E5000144B1B687968FA680A441178124AD154F5
:102E6000104B1B685A1C0F4B1A600E4B1B68802BB3
:102E700002D10C4B00221A600A4B1A680B4B1B68DC
:102E80009A4201D1022307E0FB680133FB60FA6834
:102E90003B689A42DCD3002318461437BD465DF8E0
:102EA000047B7047480D0020B40C0020340D002036
:102EB00080B500AF154B154AD2F8882042F4700255
:102EC000C3F88820124B124A126842F001021A60BD
:102ED0000F4B00229A600E4A0D4B1B6823F084733F
:102EE00023F4803313600A4B0A4A5A60084B084A9D
:102EF000126822F480221A60054B0022DA6000F08A
:102F000087F8024B4FF000629A6080BD00ED00E050
:102F1000003802401030002480B487B000AF002396
:102F20003B6100237B610223FB600023BB60022323
:102F30007B60324B9B6803F00C033B613B69042BC5
:102F400007D0082B09D0002B3FD12D4B2D4A1A60FA
:102F50003FE02B4B2C4A1A603BE0284B5B6803F4A4
:102F600080039B0DBB60254B5B6803F03F037B60D8
:102F7000BB68002B0DD0244A7B68B2FBF3F21F4BD9
:102F8000596847F6C0730B409B0903FB02F37B6152
:102F90000CE01C4A7B68B2FBF3F2184B596847F609
:102FA000C0730B409B0903FB02F37B61134B5B680F
:102FB00003F440331B0C01335B00FB607A69FB6850
:102FC000B2FBF3F20E4B1A6003E00D4B0D4A1A6090
:102FD00000BF0A4B9B6803F0F0031B090B4AD35C4C
:102FE000DBB23B61064B1A683B69DA40044B1A605E
:102FF0001C37BD465DF8047B704700BF00380240B7
:10300000B80000200024F40000127A00BC00002068
:1030100080B483B000AF00237B6000233B60354B5E
:10302000344A126842F480321A60324B1B6803F44F
:1030300000333B607B6801337B603B68002B03D12E
:103040007B68B3F5A06FF0D12A4B1B6803F4003303
:10305000002B02D001233B6001E000233B603B6872
:10306000012B42D1234B234A126C42F080521A6446
:10307000214B214A126842F480421A601D4B1D4ABE
:1030800092689A601B4B1B4A926842F400429A6015
:10309000184B184A926842F4A0529A60154B174A8E
:1030A0005A60144B134A126842F080721A6000BFD3
:1030B000104B1B6803F00073002BF9D0104B40F24B
:1030C00005621A600B4B0B4A926822F003029A6069
:1030D000084B084A926842F002029A6000BF054B12
:1030E0009B6803F00C03082BF9D10C37BD465DF843
:1030F000047B7047003802400070004008544007CD
:10310000003C024080B584B000AF7860012001210E
:10311000FFF7FEFA4FF4D853BB6003237B730223FF
:103120003B730023BB730023FB7307F108032048A4
:103130001946FFF7B3FC1E4808210A22FFF764FD79
:103140001B4809210A22FFF75FFD19480B210A22BB
:10315000FFF75AFD16480C210A22FFF755FD4FF4E0
:103160008063BB600123BB730123FB7303237B7369
:1031700007F108030E481946FFF790FC0C480A2196
:103180000A22FFF741FD4FF480400121FFF71AFBAF
:1031900080200121FFF7DAFA4FF080500121FFF77C
:1031A0002FFB012001F064FC1037BD4680BD00BF3D
:1031B0000000024080B584B000AF78604FF4C0607A
:1031C00001F0F4FD43233B7301237B730323BB73A3
:1031D0000123FB7307F10C03184601F0F9FD1037CA
:1031E000BD4680BD80B485B000AF78600023FB6031
:1031F0007A6813461B019B1ADB001A460A4BA3FB95
:103200000213D21A520813449B08BB60FB680133B7
:10321000FB60FA68BB689A4200D900E0F6E7143711
:10322000BD465DF8047B70472549922480B582B085
:1032300000AF78607B684FF47A7202FB03F31846A4
:10324000FFF7D0FF0837BD4680BD00BF80B584B012
:1032500000AF786039600023FB733B685B78092B13
:1032600039D801A252F823F0B9320008CD32000853
:10327000D7320008C3320008D73200089B3200085A
:1032800091320008D7320008AF320008A53200089A
:103290007868396800F036F922E07868396800F01B
:1032A0000DFA1DE07868396800F046FA18E0786891
:1032B000396800F0BBFA13E07868396800F0E6FA84
:1032C0000EE07868396800F009FB09E07868396831
:1032D00000F06AFB04E07868396800F0D3FB00BFB7
:1032E000FB7B18461037BD4680BD00BF80B584B05B
:1032F00000AF786039600023FB737B6893F812316C
:10330000032B1CD13B689B88DBB2012B11D87B6857
:10331000D3F8E0359B687868396898473B68DB8864
:10332000002B0BD1FB7B002B08D1786802F02AF828
:103330000AE07868396800F0A5FB05E004E07868E9
:10334000396800F09FFB00BFFB7B18461037BD4675
:1033500080BD00BF80B584B000AF786039600023C5
:10336000FB733B689B88BB733B685B78012B39D050
:10337000032B02D0002B6BD0BCE07B6893F812319A
:10338000022B02D0032B0DD026E0BB7B002B08D0F4
:10339000BB7B802B05D0BB7B7868194601F0F8FE1B
:1033A0001FE01EE03B685B88002B0AD1BB7B002B33
:1033B00007D0BB7B802B04D0BB7B7868194601F01B
:1033C000E7FE7B68D3F8E0359B68786839689847F2
:1033D000786801F0D7FF04E07868396800F052FBA4
:1033E00000BF87E07B6893F81231022B02D0032BD9
:1033F0000DD027E0BB7B002B08D0BB7B802B05D0FA
:10340000BB7B7868194601F0C3FE20E01FE03B68F3
:103410005B88002B15D1BB7B002B0ED0BB7B802B98
:103420000BD0BB7B7868194601F0ECFE7B68D3F8C3
:10343000E0359B68786839689847786801F0A2FFA2
:1034400005E004E07868396800F01CFB00BF51E03B
:103450007B6893F81231022B02D0032B0DD043E08E
:10346000BB7B002B08D0BB7B802B05D0BB7B786857
:10347000194601F08DFE3CE03BE0BB7B5BB2002BCC
:1034800015DABB7B03F07F02796813469B00134477
:10349000DB000B4403F58C739B78002B03D0184B97
:1034A00001221A601AE0164B00221A6016E0BB7B5C
:1034B0005BB2002B12DBBA7B796813469B00134486
:1034C000DB000B4403F55C739B78002B03D00C4BA3
:1034D00001221A6002E00A4B00221A60786808494B
:1034E000022201F0E7FE04E07868396800F0CAFAC9
:1034F00000BF00BFFB7B18461037BD4680BD00BF34
:103500009006002080B584B000AF786039603B68D9
:103510005B881B0A9BB2013B062B00F2B18001A223
:1035200052F823F041350008733500089D35000836
:1035300081360008813600086D36000877360008AD
:103540007B68D3F8E8351B687A68917807F10A023E
:10355000084611469847F8603B68DB88402B04D04A
:103560007B6893F81231012B02D108237B818CE018
:103570008BE07B68D3F8E0359B6A7A68917807F135
:103580000A02084611469847F860FB680133022298
:103590001A707B68FA68C3F8EC2576E03B685B88B4
:1035A000DBB2052B5CD801A252F823F0C535000828
:1035B000DF350008F9350008133600082D360008FD
:1035C000473600087B68D3F8E8355B687A689178FD
:1035D00007F10A02084611469847F86045E07B6803
:1035E000D3F8E8359B687A68917807F10A020846B3
:1035F00011469847F86038E07B68D3F8E835DB6817
:103600007A68917807F10A02084611469847F860EF
:103610002BE07B68D3F8E8351B697A68917807F16D
:103620000A02084611469847F8601EE07B68D3F806
:10363000E8355B697A68917807F10A020846114615
:103640009847F86011E07B68D3F8E8359B697A68A1
:10365000917807F10A02084611469847F86004E09D
:103660007868396800F00EFA24E00EE0786839686E
:1036700000F008FA1EE07868396800F003FA19E0F3
:103680007868396800F0FEF914E07B89002B11D0CE
:103690003B68DB88002B0DD03B68DA887B899A4237
:1036A00038BF13469BB27B817B897868F9681A46DC
:1036B00001F000FE1037BD4680BD00BF80B584B06C
:1036C00000AF786039603B689B88002B2DD13B6848
:1036D000DB88002B29D13B685B88DBB203F07F03DA
:1036E000FB737B6893F81231032B04D17868396837
:1036F00000F0C8F918E07B68FA7B83F81321FB7BA4
:103700007868194601F0B8FD786801F03BFEFB7B54
:10371000002B04D07B68022283F8122104E07B682E
:10372000012283F8122104E003E07868396800F090
:10373000A9F91037BD4680BD80B582B000AF786072
:1037400039603B685B88DAB2374B1A70364B1B78AE
:10375000012B04D97868396800F094F960E07B683F
:1037600093F81231022B02D0032B1BD053E02E4BC7
:103770001B78002B12D02C4B1A787B6883F8102111
:103780007B68032283F81221274B1B78786819463F
:10379000FEF76AFE786801F0F5FD41E0786801F017
:1037A000F1FD3DE0204B1B78002B12D17B680222FB
:1037B00083F812211C4B1A787B6883F810211A4B6E
:1037C0001B7878681946FEF767FE786801F0DAFD25
:1037D00020E07B6893F81021134B1B789A4215D098
:1037E0007B6893F8103178681946FEF755FE0E4B4A
:1037F0001A787B6883F810210B4B1B787868194680
:10380000FEF732FE786801F0BDFD03E0786801F054
:10381000B9FD05E004E07868396800F033F900BFCD
:103820000837BD4680BD00BF9C06002080B582B031
:1038300000AF786039603B68DB88012B04D0786882
:10384000396800F01FF91BE07B6893F81231022BF6
:1038500002D0032B06D00EE078680B49012201F05C
:1038600029FD0DE07B6803F588737868194601220D
:1038700001F020FD04E07868396800F003F900BF2A
:103880000837BD4680BD00BF9406002080B582B0D9
:1038900000AF786039607B6893F81231023B012BEE
:1038A00011D87B68D3F81431002B03D00A4B0322C4
:1038B0001A6002E0084B01221A607868064901226A
:1038C00001F0F8FC04E07868396800F0DBF800BF2C
:1038D0000837BD4680BD00BF9806002080B584B083
:1038E00000AF786039600023FB733B685B88012B75
:1038F0000ED17B680122C3F814217B68D3F8E03530
:103900009B68786839689847786801F03BFD48E023
:103910003B685B88022B44D13B689B88DBB2002B61
:103920003FD17B681B695B68BB603B689B881B0A57
:103930009BB2FB73FB7B013B042B2BD801A252F8FB
:1039400023F000BF593900086539000871390008B3
:103950007D390008893900083B7A012262F3061399
:103960003B7217E03B7A022262F306133B7211E0CE
:103970003B7A032262F306133B720BE03B7A04228C
:1039800062F306133B7205E03B7A052262F30613ED
:103990003B7200BF7B681B69BA685A60786801F0A7
:1039A000F1FC1037BD4680BD80B582B000AF7860B5
:1039B00039607B6893F81231023B012B13D83B68C6
:1039C0005B88012B0ED17B680022C3F814217B6831
:1039D000D3F8E0359B68786839689847786801F0D3
:1039E000D1FC05E004E07868396800F04BF800BFCE
:1039F0000837BD4680BD00BF80B483B000AF78609B
:103A000039607B6893F8C8253B681A707B6893F827
:103A1000C9253B685A707B6893F8CA351A467B689B
:103A200093F8CB351B029BB213449AB23B685A8081
:103A30007B6893F8CC351A467B6893F8CD351B022A
:103A40009BB213449AB23B689A807B6893F8CE3558
:103A50001A467B6893F8CF351B029BB213449AB287
:103A60003B68DA803B68DB881A467B68C3F83C21F8
:103A70007B68012283F811210C37BD465DF8047B79
:103A8000704700BF80B582B000AF786039603B6896
:103A90001B78DBB25BB2002B04DA7868802101F07E
:103AA00077FB0CE03B68DB88002B04D17868802131
:103AB00001F06EFB03E07868002101F069FB786893
:103AC000FDF78EFC0837BD4680BD00BF80B586B0CF
:103AD00000AFF860B9607A600023FB75FB68002BCB
:103AE0002FD0F86800F030F8034601339BB25B003A
:103AF0009AB27B681A80FB7D5A1CFA75BA68134427
:103B00007A681288D2B21A70FB7D5A1CFA75BA68AC
:103B1000134403221A7010E0FB7D5A1CFA75BA6830
:103B20001A44FB68591CF9601B781370FB7D5A1C02
:103B3000FA75BA68134400221A70FB681B78002BD0
:103B4000EAD11837BD4680BD80B485B000AF78603B
:103B50000023FB7305E0FB7B0133FB737B680133C0
:103B60007B607B681B78002BF5D1FB7B18461437F4
:103B7000BD465DF8047B704780B586B000AF7860C5
:103B800000237B617868FCF755FE0346002B00F0AC
:103B90009C807868FCF760FE03463B613B69002B24
:103BA00001D1002392E0BB7CC3F3C003DBB2002B46
:103BB00006D0786800F012FA03467A6913437B61F5
:103BC000BB7CC3F38003DBB2002B06D0786800F027
:103BD0000FF903467A6913437B613B7CC3F34003CF
:103BE000DBB2002B09D00023FB603B7B43F00203D8
:103BF0003B737B68DB68FA685A61FB7CC3F3C013D4
:103C0000DBB2002B06D0786800F064F803467A69CE
:103C100013437B617B7CC3F3C003DBB2002B06D074
:103C2000786800F097F803467A6913437B613B7C20
:103C3000C3F3C003DBB2002B06D0786800F08AFA29
:103C400003467A6913437B613B7CC3F30013DBB209
:103C5000002B06D0786800F097FA03467A69134380
:103C60007B617B7CC3F30013DBB2002B06D078684A
:103C700000F07EFB03467A6913437B617B7CC3F3D0
:103C80004013DBB2002B06D0786800F013FC03462B
:103C90007A6913437B61BB7CC3F30013DBB2002B57
:103CA00006D0786800F042FC03467A6913437B61D2
:103CB000BB7CC3F34013DBB2002B06D0786800F066
:103CC0004FFC03467A6913437B617B6918461837BA
:103CD000BD4680BD80B586B000AF78607B689B7ABA
:103CE000002B11D07B6803F586731B68FB603B7B60
:103CF0006FF341033B733B7B6FF300033B737B68C4
:103D0000D3F80C31FA681A6000233B613B7C43F026
:103D100001033B747B681B697A68126951683A69D0
:103D2000D2430A405A600A4B1B689B6978689847DF
:103D300000237B61FB7D43F08003FB757B68DB68C0
:103D40007A695A61012318461837BD4680BD00BF05
:103D50004800002080B586B000AF7860224B1B6819
:103D60005B69786898477B681B699B68FB600023E8
:103D70007B617B7D43F008037B757B68DB687A6938
:103D80005A617B689B7A002B29D03B7BC3F30003ED
:103D9000DBB2012B23D100233B613B7C43F00103C9
:103DA0003B747B68D3F80C317A68D2F80C21116827
:103DB0003A690A431A603B7C43F002033B747B6818
:103DC000D3F80C317A68D2F80C2111683A690A43A9
:103DD0001A60064B054A126942F006021A61012375
:103DE00018461837BD4680BD4800002000ED00E0B1
:103DF00080B586B000AF786000233B610023BB60D4
:103E00007868FDF7D7FA7861DCE07B6903F001039D
:103E1000002B00F0D1803B69DBB27868194600F0D6
:103E2000B9FB0346BB603B7AC3F30003DBB2002B54
:103E300032D03B69012202FA03F3FB607B681B6905
:103E40007A681269516BFA68D2430A405A630023B8
:103E5000BB603B7A43F001033B727A683B690433F1
:103E60009B0013449B68BA689A605B4B1B685B6855
:103E70003A69D2B27868114698477B68DB78012BA3
:103E80000AD13B69002B07D17B6893F81131042BD1
:103E900002D17868FDF7A4FA3B7AC3F38003DBB262
:103EA000002B0DD00023BB603B7A43F004033B7230
:103EB0007A683B6904339B0013449B68BA689A6034
:103EC0003B7AC3F3C003DBB2002B0DD00023BB60F1
:103ED0003B7A43F008033B727A683B6904339B00EA
:103EE00013449B68BA689A603B7AC3F30013DBB251
:103EF000002B0DD00023BB603B7A43F010033B72D4
:103F00007A683B6904339B0013449B68BA689A60E3
:103F10003B7AC3F34013DBB2002B0DD00023BB6010
:103F20003B7A43F020033B727A683B6904339B0081
:103F300013449B68BA689A603B7AC3F38013DBB280
:103F4000002B0DD00023BB603B7A43F040033B7253
:103F50007A683B6904339B0013449B68BA689A6093
:103F60003B7AC3F34003DBB2002B0DD00023BB60D0
:103F70003B7A43F002033B727A683B6904339B004F
:103F800013449B68BA689A603B7AC3F3C013DBB2F0
:103F9000002B11D07868396900F078F90023BB60F4
:103FA0003B7A43F080033B727A683B6904339B00A1
:103FB00013449B68BA689A603B6901333B617B6933
:103FC0005B087B617B69002B7FF41FAF01231846E0
:103FD0001837BD4680BD00BF4800002080B586B0C0
:103FE00000AF786000233B610023FB607868FDF739
:103FF000AFF97861A3E07B6903F00103002B00F0C7
:1040000098803B69DBB278681946FDF7B7F903463B
:10401000FB603B7BC3F30003DBB2002B48D00023E3
:10402000FB603B7B43F001033B737A683B691433CD
:104030009B0013445B68FA689A607B68DB78012B0D
:104040001FD17A683B6914339B0013445B681B697A
:10405000BB6079683A6913469B001344DB000B444C
:1040600003F55E731A68BB68C3F31203D11A78684C
:104070003A6913469B001344DB00034403F5627363
:104080001960334B1B681B683A69D2B278681146D5
:1040900098477B68DB78012B0AD13B69002B07D15D
:1040A0007B6893F81131052B02D17868FDF798F9F8
:1040B0003B7BC3F34003DBB2002B0DD00023FB603E
:1040C0003B7B43F002033B737A683B6914339B00EC
:1040D00013445B68FA689A603B7BC3F38003DBB2EE
:1040E000002B0DD00023FB603B7B43F004033B73AC
:1040F0007A683B6914339B0013445B68FA689A60E2
:104100003B7BC3F3C003DBB2002B12D0104B1B6808
:104110009B68786898470023FB603B7B43F008036B
:104120003B737A683B6914339B0013445B68FA68FD
:104130009A603B6901333B617B695B087B617B690A
:10414000002B7FF458AF012318461837BD4680BDB9
:104150004800002080B584B000AF7860094B1B6830
:10416000DB68786898470023FB603B7B43F00803DB
:104170003B737B68DB68FA685A6101231846103785
:10418000BD4680BD4800002080B586B000AF786095
:1041900000233B613B7C43F010033B747B68DB688E
:1041A0007A68D26891693A69D2430A409A617B6819
:1041B000DB681B6AFB603B7BC3F30303DBB21A467D
:1041C00013469B001344DB0003F55C737A681344C9
:1041D0007B61BB7BC3F34303DBB2013B052B46D8BA
:1041E00001A252F823F000BF6F420008014200080C
:1041F0006F4200086F4200086F4200084B420008FF
:10420000BB89C3F30A139BB2002B1DD07B69DA680C
:10421000BB89C3F30A139BB2786811461A46FCF7B0
:1042200053F87B69DA68BB89C3F30A139BB21A445B
:104230007B69DA607B699A69BB89C3F30A139BB215
:104240001A447B699A6113E012E07B6803F5B96355
:10425000786819460822FCF737F87B699A69BB89A8
:10426000C3F30A139BB21A447B699A6100E000BF52
:104270007B68DB687A68D26891693A690A439A6117
:10428000012318461837BD4680BD00BF80B586B0F3
:1042900000AF7860396000237B610023BB603A681F
:1042A00013469B001344DB0003F58C737A681344B8
:1042B000FB60FB685A69FB689B69D31A7B61FB68EA
:1042C0009A687B699A4202D2FB689B687B617B6932
:1042D00003339B083B617A683B6804339B001344BB
:1042E0009B689B69BB602EE0FB685A69FB689B6911
:1042F000D31A7B61FB689A687B699A4202D2FB6899
:104300009B687B617B6903339B083B61FB68D968D1
:104310003B68DAB27B699BB27868FBF79DFFFB686C
:10432000DA687B691A44FB68DA60FB689A697B6922
:104330001A44FB689A617A683B6804339B00134413
:104340009B689B69BB603B891A463B699A4209D9C5
:10435000FB689A69FB685B699A4203D2FB685B69F8
:10436000002BC1D1012318461837BD4680BD00BFC0
:1043700080B58AB000AF786000233B6100233B62C8
:104380000023FB610023BB6100237B610023FB60F2
:104390003B7C43F001033B747B681B697A681269BC
:1043A00051683A69D2430A405A6078680021FCF7A4
:1043B00097F900237B6212E07A687B6A04339B00E2
:1043C00013449B68FF229A607A687B6A14339B00CF
:1043D00013445B68FF229A607B6A01337B627B68CF
:1043E0005B781A467B6A9A42E6D87B681B694FF075
:1043F000FF329A613B8C012262F30F033B847B8C7A
:10440000012262F30F037B847B681B693A6ADA61DD
:104410003B7F43F008033B773B7F43F001033B774F
:104420003B7F43F004033B773B7F43F002033B7742
:104430007B681B69FA695A613B7E43F001033B7656
:104440003B7E43F008033B763B7E43F002033B7622
:104450003B7E43F004033B763B7E43F020033B76F8
:104460007B681B69BA691A617B681B691B687B6181
:10447000BB8A6FF30A13BB827B681B697A691A6077
:104480007868FCF7ADFF0023FB607B7B43F01003F3
:104490007B737B68DB68FA685A61054B1B681B6994
:1044A00078689847012318462837BD4680BD00BF6D
:1044B0004800002080B584B000AF78607868FCF7D1
:1044C000ADFB7B68DB68DB68BB607868FCF782FB70
:1044D0000346032B0CD17B6800229A707B684FF453
:1044E00000729A807B7A092262F385037B720AE06C
:1044F0007B6801229A707B6840229A807B7A052231
:1045000062F385037B727B68DB68BA68DA6000233C
:10451000FB607B7B43F020037B737B68DB68FA687E
:104520005A61012318461037BD4680BD80B584B05E
:1045300000AF78600023FB60084B1B68DB6978687C
:104540009847BB7B43F01003BB737B68DB68FA685A
:104550005A61012318461037BD4680BD480000202F
:1045600080B584B000AF78600023FB60084B1B6807
:104570001B6A78689847BB7B43F02003BB737B685A
:10458000DB68FA685A61012318461037BD4680BDC2
:104590004800002080B487B000AF78600B46FB7005
:1045A0007B681B691B697B617B681B695B6B3B617B
:1045B000FB783A6922FA03F3DB01DBB27A69134331
:1045C0007B61FB787A6804339B0013449B689A688C
:1045D0007B691340FB60FB6818461C37BD465DF8DD
:1045E000047B704780B584B000AF78600B46FB70E9
:1045F0007B68D3F8EC3539331B88786881211A46FB
:10460000022300F0C3FC7B68D3F8EC3540331B88F1
:10461000786801211A46022300F0B8FC78688221EC
:104620000822032300F0B2FC0D4BFB60FB6804334F
:1046300002221A70FB68053300221A70094B1B68AE
:1046400098477B68D3F8EC3540331B8878680121A4
:10465000054A00F021FD002318461037BD4680BDF5
:1046600078000020A4000020C40D002080B582B096
:1046700000AF78600B46FB707868812100F0D4FCB5
:104680007868012100F0D0FC7868822100F0CCFC31
:10469000034B5B689847002318460837BD4680BD2A
:1046A000A400002080B584B000AF786039603B681A
:1046B0001B7803F06003002B3FD0202B37D13B68E1
:1046C000DB88002B29D03B681B78DBB25BB2002B68
:1046D00011DA364B9B683A68527811463A68D288AC
:1046E0000846334998473B68DB88786830491A4662
:1046F00000F0E0FD19E03B685B781A462D4B1A602C
:104700003B68DB881A462C4B1A603B68DB8878686C
:1047100027491A4600F002FE07E0244B9B683A68DE
:104720005278104600210022984700233AE078682A
:104730003968FFF7A7F9022334E03B685B780A2B5E
:1047400018D00B2B1CD0062B2BD13B685B881B0A87
:104750009BB2212B07D1194BBB603B68DB883A2BFE
:1047600028BF3A23FB81FB897868B9681A4600F0B4
:10477000A1FD16E078681249012200F09BFD10E0CF
:104780003B685B88DBB2002B06D13B685B88DBB201
:104790001A460B4B1A6003E078683968FFF772F924
:1047A00000BF002318461037BD4680BDA40000207E
:1047B000040E002010010020B4060020DE000020BE
:1047C000A006002080B582B000AF78600A4B1B685D
:1047D000FF2B0BD0094B9B68074A1168084A1268E7
:1047E000084608499847044BFF221A6000231846E0
:1047F0000837BD4680BD00BF10010020A400002086
:10480000B4060020040E002080B584B000AF7860AC
:104810000B46FB70284B1B78012B48D1274B1B689C
:10482000002B03D1244B00221A7040E07B68D3F8A0
:10483000EC3539331B881A46204B1B689A421ED22E
:104840001F4B1B68FB817B68D3F8EC35B3F839301C
:10485000BB817B68D3F8EC3539331B881A46184B7B
:104860001B681A44164B1A60144B1A687B68D3F8FD
:10487000EC3539331B88D21A104B1A600FE0104BFD
:104880001B68FB810D4B1B68BB810D4B1A680B4BE2
:104890001B681A440A4B1A60084B00221A60FA89F6
:1048A000084B1A44BB897868812100F035FC00234D
:1048B00018461037BD4680BDB0060020AC0600206B
:1048C000A80600200C0E002080B584B000AF7860F0
:1048D0000B46FB70FA78796813469B001344DB00A3
:1048E0000B4403F562731B68FB810A4B1B69FA8951
:1048F0000948114698477B68D3F8EC3540331B884C
:1049000078680121044A00F0C7FB002318461037DD
:10491000BD4680BDA4000020C40D002080B582B03B
:1049200000AF7860084B1B68591C074A1160052BC3
:1049300005D1054B00221A60786800F007F80023C3
:1049400018460837BD4680BDB806002080B584B043
:1049500000AF7860384B1B78012B69D0374B1B6850
:10496000B3F5006F02D1354B00221A60334B1A6841
:10497000334B1B689A4203D12F4B00221A7057E029
:104980002E4B1A682E4B1B689A4206D92B4B1B687C
:10499000C3F500622B4B1A6006E0294B1A68274BBF
:1049A0001B68D21A274B1A607B68D3F8EC35393371
:1049B0001B881A46234B1B689A421ED21F4B1B684A
:1049C000FB817B68D3F8EC35B3F83930BB817B6869
:1049D000D3F8EC3539331B881A46184B1B681A4438
:1049E000164B1A60174B1A687B68D3F8EC353933CD
:1049F0001B88D21A134B1A600FE0104B1B68FB8107
:104A0000104B1B68BB810D4B1A680E4B1B681A4478
:104A10000A4B1A600B4B00221A60074B01221A70D6
:104A2000FA89094B1A44BB897868812100F074FB2C
:104A30001037BD4680BD00BFB0060020A80600208C
:104A4000A4060020AC0600200C0E002080B483B029
:104A500000AF03463960FB713B6843221A80034B69
:104A600018460C37BD465DF8047B7047CC0000202B
:104A700080B483B000AF7860034B7A685A610C371A
:104A8000BD465DF8047B7047003C014080B485B0B2
:104A900000AF78600023FB737A68174B9A4202D10B
:104AA0000723FB7321E07A68144B9A4202D1072353
:104AB000FB731AE07A68124B9A4202D10723FB7308
:104AC00013E07A680F4B9A4202D10823FB730CE083
:104AD0007A680D4B9A4202D10823FB7305E07A688D
:104AE0000A4B9A4201D10823FB73FB7B184614370B
:104AF000BD465DF8047B7047001001400044004053
:104B000000480040004C00400050004000140140AC
:104B100080B485B000AF78600023FB607A68174BE3
:104B20009A4202D12523FB6021E07A68144B9A4215
:104B300002D12623FB601AE07A68124B9A4202D116
:104B40002723FB6013E07A680F4B9A4202D134238B
:104B5000FB600CE07A680D4B9A4202D13523FB6072
:104B600005E07A680A4B9A4201D14723FB60FB6853
:104B700018461437BD465DF8047B704700100140AD
:104B80000044004000480040004C004000500040FD
:104B90000014014080B582B000AF78607A68414B64
:104BA0009A4210D1404B1B6803F00103002B0AD13D
:104BB00010200121FDF706FE3B4B1B6843F001026C
:104BC000394B1A606BE07A68384B9A4211D1364BF8
:104BD0001B6803F00203002B0BD14FF400300121BE
:104BE000FDF7D2FD304B1B6843F002022E4B1A60DA
:104BF00055E07A682E4B9A4211D12B4B1B6803F07B
:104C00000403002B0BD14FF480200121FDF7BCFDE4
:104C1000254B1B6843F00402234B1A603FE07A687F
:104C2000244B9A4211D1204B1B6803F00803002B40
:104C30000BD14FF400200121FDF7A6FD1A4B1B6894
:104C400043F00802184B1A6029E07A681A4B9A421E
:104C500011D1154B1B6803F01003002B0BD14FF43F
:104C600080100121FDF790FD0F4B1B6843F01002EF
:104C70000D4B1A6013E07A68104B9A420FD10A4B21
:104C80001B6803F02003002B09D120200121FDF730
:104C900099FD054B1B6843F02002034B1A6008374F
:104CA000BD4680BD00100140C00600200044004009
:104CB00000480040004C00400050004000140140FB
:104CC00080B485B000AF0346FB800023FB73FB88F4
:104CD000802B49D0802B11DC082B39D0082B06DC27
:104CE000022B2FD0042B30D0012B28D057E0202BC3
:104CF00034D0402B35D0102B2DD050E0B3F5006FC1
:104D00003ED0B3F5006F09DCB3F5007F32D0B3F5C8
:104D1000806F32D0B3F5807F29D040E0B3F5005FDB
:104D200034D0B3F5005F03DCB3F5805F2BD036E001
:104D3000B3F5804F2DD0B3F5004F2DD02FE00023D9
:104D4000FB732CE00123FB7329E00223FB7326E0B5
:104D50000323FB7323E00423FB7320E00523FB7391
:104D60001DE00623FB731AE00723FB7317E00823FB
:104D7000FB7314E00923FB7311E00A23FB730EE0BD
:104D80000B23FB730BE00C23FB7308E00D23FB7379
:104D900005E00E23FB7302E00F23FB7300BFFB7BD8
:104DA00018461437BD465DF8047B704780B483B065
:104DB00000AF7860054A7B6843F0BF6343F400337B
:104DC000D3600C37BD465DF8047B704700ED00E012
:104DD00080B485B000AF78600023FB730023BB7301
:104DE0000F237B737B68DB78002B37D0254BDB6888
:104DF000DB4303F4E0631B0AFB73FB7BC3F1040397
:104E0000BB737A7BFB7B42FA03F37B737B685B7833
:104E10001A46BB7B02FA03F3FB737B689A787B7BB1
:104E20001340DAB2FB7B1343FB73FB7B1B01FB7369
:104E3000154A7B681B781344FA7B83F80023124BD6
:104E40007A6812785209D2B27968097801F01F01A4
:104E5000012000FA01F143F822100EE00A4B7A68B3
:104E600012785209D2B27968097801F01F01012045
:104E700000FA01F1203243F822101437BD465DF8E4
:104E8000047B704700ED00E000E100E080B584B0F5
:104E900000AF78600B46FB70FB7878681946FBF72B
:104EA0003FFA7B68012283F812217B68002283F895
:104EB00013210023FB6023E0FA6813469B00134490
:104EC000DB0003F58C737A681344BB60BB68012276
:104ED0005A70FB68DAB2BB681A70FB689AB2BB689A
:104EE000DA80BB680022DA70BB6840229A60BB6837
:104EF0000022DA60BB6800225A61FB680133FB6064
:104F00007B685B781A46FB689A42D5D80023FB6021
:104F100023E0FA6813469B001344DB0003F55C733F
:104F20007A681344BB60BB6800225A70FB68DAB22F
:104F3000BB681A70FB689AB2BB68DA80BB68002253
:104F4000DA70BB6840229A60BB680022DA60BB68F6
:104F500000225A61FB680133FB607B685B781A466C
:104F6000FB689A42D5D87868FBF79EFB7868FBF718
:104F700091FA78680021FBF71DFC7868FBF7A0FC2C
:104F80007868FBF775FB1037BD4680BD80B584B0EF
:104F900000AF7860F9703A80BB70FB785BB2002B91
:104FA0000CDAFB7803F07F0213469B001344DB000E
:104FB00003F58C737A681344FB600BE0FB7803F015
:104FC0007F0213469B001344DB0003F55C737A6891
:104FD0001344FB60FB7803F07F03DAB2FB681A70BE
:104FE000FB78DB09DBB21A46FB685A703A88FB682B
:104FF0009A60FB68BA78DA70FB685B78002B04D0A3
:10500000FB681B781A46FB68DA80BB78022B02D15A
:10501000FB6800221A717868F968FBF73BFE0023F1
:1050200018461037BD4680BD80B584B000AF7860AB
:105030000B46FB70FB785BB2002B0CDAFB7803F0BD
:105040007F0213469B001344DB0003F58C737A68E0
:105050001344FB600BE0FB7803F07F0213469B00D8
:105060001344DB0003F55C737A681344FB60FB7840
:1050700003F07F03DAB2FB681A70FB78DB09DBB25E
:105080001A46FB685A707868F968FBF771FE0023CE
:1050900018461037BD4680BD80B586B000AFF860B9
:1050A0007A600A46FA723B81FB7A03F07F0213466C
:1050B0009B001344DB0003F55C73FA6813447B61C7
:1050C0007B697A68DA603A897B695A617B69002278
:1050D0009A617B6900225A70FB7A03F07F03DAB28F
:1050E0007B691A70FB68DB78012B02D17A687B69D7
:1050F0001A617B691B78002B04D1F8687969FBF78A
:10510000BDFF03E0F8687969FBF778FE00231846D5
:105110001837BD4680BD00BF80B586B000AFF860CF
:105120007A603B600B46FB72FB7A03F07F0213460A
:105130009B001344DB0003F58C73FA6813447B6116
:105140007B6901225A70FB7A03F07F03DAB27B6934
:105150001A707B697A68DA607A687B691A617B69A0
:1051600000229A617B693A685A617B691B78002B3F
:1051700004D1F8687969FBF781FF03E0F868796981
:10518000FBF73CFE002318461837BD4680BD00BF24
:1051900080B584B000AF78600B46FB70FB785BB2E3
:1051A000002B0CDAFB7803F07F0213469B001344BC
:1051B000DB0003F58C737A681344FB6009E0FA782E
:1051C00013469B001344DB0003F55C737A681344B9
:1051D000FB60FB6801229A70FB7803F07F03DAB270
:1051E000FB681A70FB78DB09DBB21A46FB685A7061
:1051F0007868F968FCF72CF8002318461037BD468C
:1052000080BD00BF80B584B000AF78600B46FB70F6
:10521000FB785BB2002B0CDAFB7803F07F021346BD
:105220009B001344DB0003F58C737A681344FB6026
:1052300009E0FA7813469B001344DB0003F55C7326
:105240007A681344FB60FB6800229A70FB7803F0D5
:105250007F03DAB2FB681A70FB78DB09DBB21A460F
:10526000FB685A707868F968FCF736F8002318462E
:105270001037BD4680BD00BF80B485B000AF7860F8
:105280000B46FB700023FB60FB7803F07F03DAB270
:10529000BB8962F30A13BB817B681B697A68126958
:1052A0001168FA680A431A601437BD465DF8047B3A
:1052B000704700BF80B586B000AFF860B960134694
:1052C000FB800023FB75FA88FB68C3F83821FA8855
:1052D000FB68C3F83421FB68022283F81121FB88A4
:1052E000F8680021BA68FFF717FFFB7D18461837EA
:1052F000BD4680BD80B586B000AFF860B96013468A
:10530000FB800023FB75FB88F8680021BA68FFF773
:1053100003FFFB7D18461837BD4680BD80B586B0BB
:1053200000AFF860B9601346FB800023FB75FA8874
:10533000FB68C3F89023FA88FB68C3F88C23FB68EA
:10534000032283F81121FB88F8680021BA68FFF76F
:10535000A3FEFB7D18461837BD4680BD80B586B0DC
:1053600000AFF860B9601346FB800023FB75FB8833
:10537000F8680021BA68FFF78FFEFB7D18461837E2
:10538000BD4680BD80B584B000AF78600023FB735C
:105390007B68042283F81121786800210022002311
:1053A000FFF7BAFE7868FCF71BF8FB7B184610374E
:1053B000BD4680BD80B584B000AF78600023FB732C
:1053C0007B68052283F811217868002100220023E0
:1053D000FFF762FE7868FCF703F8FB7B184610378E
:1053E000BD4680BD80B400AFBD465DF8047B70470C
:1053F00080B400AFBD465DF8047B704780B500AF58
:105400000448FCF73FFB0346DBB21846FCF76CFD93
:1054100080BD00BF0048004090B58DB002AFF8607D
:10542000B9607A607B80F868FFF7B4FB7B88002264
:105430000092022079681A460023FCF733F8BB8FEC
:10544000002200920220B96B1A460023FCF72AF8CA
:105450007B881846FFF734FC03461C46F868FFF7C4
:1054600015FB0346786821461A46FDF7CDFBBB8F36
:105470001846FFF725FC03461C46F868FFF706FBB5
:105480000346B86B21461A46FDF7BEFBBB68BB61FD
:105490000023BB830023FB8300233B840023BB84C6
:1054A0000C237B8407F11803F8681946FCF710FAFF
:1054B000F8680121FCF7C6FAF86840F2255101228C
:1054C000FCF7F0FA4FF4C060FFF770FCF868FFF7E4
:1054D0001FFB0346DBB23B7502237B750023BB75C4
:1054E0000123FB7507F114031846FFF771FC2C37F5
:1054F000BD4690BD80B483B000AF78600B467B8022
:105500007B88DB439AB27B681A820C37BD465DF814
:10551000047B704710EE102AC2F3C7517F39162959
:1055200010B410EE103A14DC00291ADB0F4C44FAC8
:1055300001F111420DD022EA010307EE903A30EE5C
:10554000677A036017EE102A5DF8044B00EE102A0C
:105550007047026003F0004200EE102A5DF8044B31
:10556000704702F000430360F6E700BFFFFF7F00D3
:1055700010EE102AC2F3C7537F3B162B10EE101A01
:105580000FDC002B15DB0E48184110420BD04FF4F6
:10559000800242FA03F3194421EA000000EE100AE7
:1055A0007047802B02D000EE102A704730EE000AC0
:1055B0007047013302F00040F0D140F07E50EDE73B
:1055C000FFFF7F002DE9F0432DED068BB0EE40AAE2
:1055D000F0EE60AAB0EE418AF0EE618A9F4E8BB089
:1055E00000F036FB96F90030B0EE409AF0EE609A8B
:1055F000013306D0B0EE480AF0EE680A01F0B0FCC4
:1056000040B9B0EE490AF0EE690A0BB0BDEC068B6A
:10561000BDE8F083B0EE4A0AF0EE6A0A01F0A0FCA1
:10562000044668BB51EC180B0022002302F0CAFAB2
:105630000028E6D08A4B96F900108A480894002288
:105640000124CDE906234B1C8DED02AB8DED048BBF
:10565000009401900DD002290BD0684601F0AAFCFD
:10566000002800F09D80089B1BB102F04DFB089BB9
:1056700003609DED060B0BB0BDEC068BBDE8F0831F
:105680000024002551EC1A0B22462B4602F09AFA10
:10569000E8B151EC180B22462B4602F093FA07466C
:1056A000002854D06F4A96F900300192012100225F
:1056B0008DED02AB8DED048BCDE90645009108928E
:1056C000002BCAD0664B0022CDE90623D1E7B0EE0D
:1056D000490AF0EE690A01F03BFC0746002864D055
:1056E0000024002551EC190B22462B4602F06AFAE1
:1056F000002886D0B0EE4A0AF0EE6A0A01F028FCD3
:1057000000283FF47EAFB0EE480AF0EE680A01F0E0
:105710001FFC00283FF475AF96F90030514A019202
:1057200004210022022B8DED02AB8DED048BCDE91F
:1057300006450091089200F08C80684601F03AFC22
:10574000002800F08680089B002B92D08DE7B0EEF9
:10575000480AF0EE680A01F0FBFB00283FF451AF65
:1057600051EC180B22462B4602F036FA00283FF483
:1057700048AF3C4B3178089701228DED02AB8DED9F
:10578000048B8DE80C00002941D0374B0022022900
:10579000CDE9062335D102F0B7FA21230360D2E721
:1057A00002F0B2FA212303605DE7B0EE4A0AF0EEA0
:1057B0006A0A01F0CDFB002892D0B0EE480AF0EE64
:1057C000680A01F0C5FB00288AD0B0EE490AF0EE65
:1057D000690A01F0C5FBE8B9224B3678089001222E
:1057E0008DED02AB8DED048B8DE80C007EB1204673
:1057F000294622462B4602F0A7F8022ECDE90601E3
:10580000C9D0684601F0D6FB00289CD1C3E7CDE99A
:105810000645F6E7134A96F90030089703218DED07
:1058200002AB8DED048B8DE806000BBBDFF83C90DE
:105830004FF0604822462B4651EC1A0BCDE9068901
:1058400002F0CAF900283AD196F90030022B7FF411
:1058500074AF02F059FA2223036074E7400100207C
:105860000000F03FD87D00080000F0FFFFFFEF4789
:10587000DFF88C904FF0000822462B4651EC1A0BB3
:10588000CDE9068902F0A8F90028DDD00022194BE5
:1058900051EC180B01F02EFF04460D4645EC104B61
:1058A00001F092FB224651EC100B2B4602F08AF9D4
:1058B0000028C9D1104B0022CDE90623C4E70022FD
:1058C0000C4B51EC180B01F015FF04460D4645EC4E
:1058D000104B01F079FB224651EC100B2B4602F0E5
:1058E00071F90028B0D1054B4FF06042CDE9062395
:1058F000AAE700BF0000E03F0000F0FFFFFFEFC796
:105900000000F07F70B52DED048BA84E8AB0B0EE8C
:10591000409AB0EE608A00F0DBFF96F90030013368
:10592000F0EE408A04D0B0EE480A01F07FFC28B9BE
:10593000B0EE680A0AB0BDEC048B70BDB0EE490A47
:1059400001F074FC002835D1B5EE408AF1EE10FA72
:10595000EED1974B0890012219EE100A8DE80C0049
:1059600001F074FECDE9020118EE100A01F06EFE9E
:10597000904B96F900400022CDE90623631CCDE947
:1059800004010DD0022C0BD0684601F013FB002857
:1059900000F0A480089B1BB102F0B6F9089B0360DD
:1059A000DDE9060102F060F900EE100A0AB0BDEC74
:1059B000048B70BDB5EE409AF1EE10FA23D1B5EE2E
:1059C000408AF1EE10FA5CD10123794A009319EE76
:1059D000100A00230192089301F038FECDE902017C
:1059E00018EE100A01F032FE96F900400022002362
:1059F000CDE90401CDE90623002CC5D06D4B002272
:105A0000CDE90623CCE7B0EE680A01F005FC0446B8
:105A1000002868D0F5EE408AF1EE10FA88D1B0EE99
:105A2000490A01F0F9FB002882D0B0EE480A01F0E3
:105A3000F3FB00283FF47CAF04235D4A009319EE8A
:105A4000100A00230192089301F000FECDE9020143
:105A500018EE100A01F0FAFD96F90040002200232A
:105A6000022CCDE90401CDE9062300F08E806846C2
:105A700001F0A0FA002800F08880089B002B8FD04E
:105A80008AE7B0EE480A01F0C7FB00283FF450AFA8
:105A9000B5EEC08AF1EE10FA7FF54AAF0123444A11
:105AA000009319EE100A00230192089301F0CEFD35
:105AB000CDE9020118EE100A01F0C8FD3478CDE9F5
:105AC00004010022002C34D03B4B022CCDE90623EC
:105AD00032D102F019F921230360CEE702F014F964
