:020000040800F2
:10000000401E002049230008E51A0008F11A0008E4
:10001000FD1A0008091B0008151B0008000000005D
:10002000000000000000000000000000211B00088C
:100030002D1B000800000000391B0008193E0008B5
:10004000B5230008B5230008B5230008B523000830
:10005000B5230008B5230008B5230008B523000820
:10006000B5230008B5230008B5230008B523000810
:10007000B5230008B5230008B5230008B523000800
:10008000B5230008B5230008B5230008B5230008F0
:10009000B5230008B5230008B5230008B5230008E0
:1000A000B523000889180008B5230008B523000807
:1000B000D51800082519000871190008B523000893
:1000C000B5230008B5230008B5230008B5230008B0
:1000D000B5230008C16E0008CD6E0008D96E000877
:1000E000B5230008B5230008551B0008B5230008F8
:1000F000091A0008B5230008B5230008B523000835
:10010000B5230008B5230008BD190008B523000871
:10011000B5230008B5230008B5230008B52300085F
:10012000B5230008B5230008B5230008B52300084F
:10013000B5230008B5230008B5230008B52300083F
:10014000B5230008B5230008B5230008451B0008A7
:10015000B5230008B5230008B5230008B52300081F
:10016000B5230008B5230008B5230008B52300080F
:10017000B5230008B5230008B5230008B5230008FF
:10018000B5230008B523000890B5ADB002AFF86004
:10019000B9603B601346FB800023C7F8A4300023FE
:1001A000C7F8A0300023C7F89C300123C7F8983067
:1001B0000023A7F8963004F0B7F807F14403184677
:1001C00003F044F8FB68B3F1804F03D3FA68954B12
:1001D0009A4207D9FA68944B9A4211D9FA68934B1C
:1001E0009A420DD8FB6C924AD2F88C20120E02F083
:1001F0000102013202FB03F35B00C7F8A4300CE0FC
:100200003B6D8B4AD2F88C20120E02F001020132B3
:1002100002FB03F35B00C7F8A4303B68002B0ADD48
:10022000D7F8A430834A82FB03125211DB17D21A8B
:100230003B689A4201DA0123EFE01FE0D7F8A030D3
:100240000133C7F8A030D7F8A420D7F8A03092FB2C
:10025000F3F23B6892FBF3F3C7F89C30D7F89C307D
:10026000B3F5803F02DA0023C7F89830D7F8A02012
:100270004FF6FE739A4201DD0123CEE0D7F89830A5
:10028000002BDBD1D7F8A420D7F8A03092FBF3F2F3
:10029000D7F89C3092FBF3F33B60F86806F0B4F8B3
:1002A000FB88002200920220B9681A46002301F060
:1002B00055FAD7F89C30013BFB63D7F8A0309BB2CE
:1002C000013B9BB23B870023A7F8403000237B878C
:1002D000002387F8423007F13803F868194606F022
:1002E00077FE6023BB8400233B8608237B860123A3
:1002F000FB8404233B854FF48073BB864FF400736B
:10030000FB8607F12403F868194606F00BFFF8682E
:10031000002107F0F5F807F12403F868194606F004
:100320007BFFF868002107F007F907F12403F8685C
:10033000194606F0F9FFF868002107F01BF907F1EC
:100340002403F868194607F075F8F868002107F0EB
:100350002DF9FA68384B9A4203D0FA68374B9A4223
:1003600011D107F11403184607F066F94FF48043E2
:100370003B8407F11403F868194607F035F9F8686B
:10038000012107F077F9FA8807F15403104619465E
:1003900005F0FEFE0023A7F8963025E0B7F896306A
:1003A0005B0007F1A802134433F8543C012B16D12B
:1003B000B7F8963010335B0007F1A8010B4433F80F
:1003C000523C184606F08EF903461C46F86806F0C3
:1003D000FFF90346B86821461A4603F01DFEB7F838
:1003E00096300133A7F89630B7F896300F2BD5D951
:1003F000FB6800225A63FB6800229A63FB680022B4
:10040000DA63FB6800221A64F868012106F04AFEEC
:10041000F868012106F066FE00231846AC37BD4699
:1004200090BD00BF00140040FF17004000200040B6
:10043000003802401F85EB510000014000040140DC
:1004400080B485B000AF78600023FB607B68DB6818
:100450004FF0FF325A607B68DB684FF0FF325A6121
:10046000FB7B43F08003FB737B7B43F008037B73D0
:100470007B68DB68FA689A611437BD465DF8047BD7
:10048000704700BF80B586B000AF78600023FB7472
:1004900000237B610023FB60032004F025FA7B68C6
:1004A000DB681B69FB607B6901337B617A69174BF1
:1004B0009A4201D9002324E0FB68DB0FDBB2002B5A
:1004C000EAD000237B61FB6843F00103FB607B689B
:1004D000DB68FA681A617B68DB681B69FB607B6913
:1004E00001337B617A69094B9A4200D905E0FB68C8
:1004F00003F00103DBB2012BEDD0032004F0F4F98B
:10050000FB7C18461837BD4680BD00BF400D030078
:1005100080B489B000AFF860B960FA71BB80002385
:10052000FB76FB68DB78002B22D100237B61002364
:10053000FB61BB880333002B00DA03339B107B6124
:10054000FB79FA6832339B0013449B683B610023BC
:10055000FB6109E0BB681A683B691A60FB690133FB
:10056000FB61BB680433BB60FA697B699A42F1D3D3
:10057000FB7E18462437BD465DF8047B704700BFFC
:1005800080B489B000AFF860B9601346FB800023E7
:10059000FB61FB880333002B00DA03339B10BB6144
:1005A000FB68D3F8D0307B610023FB6109E07B69F5
:1005B0001A68BB681A60FB690133FB61BB680433CE
:1005C000BB60FA69BB699A42F1D3BB68184624370D
:1005D000BD465DF8047B704780B487B000AF78609B
:1005E0000B46FB7000233B610023FB737B680022FA
:1005F000DA707B6801229A707B6840229A80FB78CF
:10060000012B13D14FF0A0433B617B680122DA72CA
:100610007B6808221A707B6804225A707B684FF44A
:10062000A072DA807B6802221A7211E0FB78002B3C
:100630000ED1454B3B617B680022DA727B680C224D
:100640001A707B6806225A707B684FF4A062DA80C9
:100650003A697B68DA603B6903F500631A467B6898
:100660001A6100237B611CE07B695A013B691344DA
:1006700003F510631A4679687B6904339B000B44C9
:100680009A607B695A013B69134403F530631A464B
:1006900079687B6914339B000B445A607B69013392
:1006A0007B617B685B781A467B699A42DCD83B6940
:1006B00003F580631A467B685A613B6903F58863DA
:1006C0001A467B68C3F8CC2000237B610FE07B696E
:1006D0005A013B69134403F5A0631A4679687B69A4
:1006E00022339B000B449A607B6901337B617B68FA
:1006F0001B781A467B699A42E9D800237B610FE098
:100700007B691A033B69134403F580531A467968E1
:100710007B6932339B000B449A607B6901337B61B8
:100720007B681B781A467B699A42E9D83B6903F5D6
:1007300060631A467B68C3F80C21FB7B18461C37A4
:10074000BD465DF8047B70470000044080B588B06A
:1007500000AF78600023FB770023BB6100237B613F
:100760000023FB607B681B7A012B4FD17B68DB6821
:100770009B6B7B61BB7D6FF30003BB757B685B7A12
:10078000002B03D0BB7D43F01003BB757B68DB6897
:100790007A699A630023BB617B68DB68DB68BB61B5
:1007A0003B7E6FF386133B76BB7E6FF38613BB767F
:1007B0003B7E43F010033B763B7E6FF3C3033B76F7
:1007C0003B7E6FF3C7133B76BB7E6FF34103BB7673
:1007D000BB7E6FF3C303BB767B68DB68BA69DA6004
:1007E0007868FFF74FFE7B68DB78012B40F0828052
:1007F0003B7B052262F344033B733B7B43F02003C6
:100800003B737B68DB68FA689A6073E07B68DB683F
:10081000DB68BB613B7E43F040033B767B68DB6873
:10082000BA69DA607868FFF72DFE00237B61BB7D33
:1008300043F00103BB757B681B7A032B03D1BB7D9F
:1008400043F00203BB75BB7D43F00403BB75BB7D66
:1008500043F00803BB75BB7D43F02003BB757B6889
:100860005B7A002B03D0BB7D43F01003BB757B6824
:10087000DB687A699A63142004F05AF87B68DB68B5
:10088000DB68BB617B681B7A032B03D1BB7E43F023
:100890000103BB767B68DB68BA69DA607B681B7A28
:1008A000032B27D17B68DB681B6B3B61FB7C012240
:1008B00062F38303FB74BB7C6FF3C713BB74FB7CD5
:1008C00043F01003FB74BB7C2D2262F30603BB7460
:1008D0007B68DB683A691A63C82004F029F8BB7C9E
:1008E00043F08003BB747B68DB683A691A63C820F5
:1008F00004F01EF87B68DB78012B10D17B68DB6885
:100900009B68FB603B7B052262F344033B733B7BAC
:1009100043F020033B737B68DB68FA689A60FB7FD7
:1009200018462037BD4680BD80B485B000AF7860E2
:100930000023FB730023BB603B7A43F001033B724F
:100940007B68DB687A68D2689168BA680A439A6003
:10095000FB7B18461437BD465DF8047B704700BF2B
:1009600080B485B000AF78600023FB730023BB60C8
:100970003B7A43F001033B727B68DB687A68D2689C
:100980009168BA68D2430A409A60FB7B18461437D4
:10099000BD465DF8047B704780B586B000AF7860D7
:1009A00039600023FB7400237B610023FB60FB683C
:1009B00043F02003FB603B68DBB203F01F03DAB2B5
:1009C000FB6862F38A13FB607B68DB68FA681A6174
:1009D0007B68DB681B69FB607B6901337B617A693B
:1009E000094B9A4200D906E0FB685B0903F001035A
:1009F000DBB2012BECD0032003F076FFFB7C184622
:100A00001837BD4680BD00BF400D030080B586B0DD
:100A100000AF78600023FB7400237B610023FB6040
:100A2000FB6843F01003FB607B68DB68FA681A61BF
:100A30007B68DB681B69FB607B6901337B617A69DA
:100A4000094B9A4200D906E0FB681B0903F0010339
:100A5000DBB2012BECD0032003F046FFFB7C1846F1
:100A60001837BD4680BD00BF400D030080B584B07F
:100A700000AF78600B46FB700023FB737B68DB687C
:100A8000DB68BB60FB7A6FF34513FB72FB7A6FF395
:100A90008613FB72FB78012B04D1FB7A43F0200311
:100AA000FB7206E0FB78002B03D1FB7A43F0400396
:100AB000FB727B68DB68BA68DA60322003F038FFCB
:100AC000FB7B18461037BD4680BD00BF80B483B0A5
:100AD00000AF78607B68DB685B6903F00103184650
:100AE0000C37BD465DF8047B704700BF80B582B00F
:100AF00000AF78607868FFF7E9FF0346012B0CBF71
:100B000000230123DBB218460837BD4680BD00BF75
:100B100080B485B000AF78600023FB607B68DB6841
:100B20005B69FB607B68DB689B69FA681340FB606C
:100B3000FB6818461437BD465DF8047B704700BF5C
:100B400080B485B000AF78600B46FB707B681B6992
:100B50001B68FB60FB7803F00303DAB23B7B62F3B4
:100B600001033B737B681B69FA681A601437BD4642
:100B70005DF8047B704700BF80B58CB000AF786033
:100B8000002387F82B3000237B6200233B62002385
:100B9000FB610023BB6100237B617B68D3F80C31D0
:100BA00000221A607B681B691B683B6297F8213042
:100BB0006FF3C40387F821307B681B693A6A1A60B7
:100BC0007B68DB7A012B40D178680321FFF7B8FFFF
:100BD0007B68DB6880225A62FB8B402262F30F0342
:100BE000FB83BB8B802262F30F03BB837B68DB68D4
:100BF000FA699A62BA8BFB8B13449BB23B837B8B63
:100C0000802262F30F037B837B68DB68BA69C3F8D9
:100C100004213A8B7B8B13449BB23B837B8B6FF31A
:100C20000F037B837B68DB68BA69C3F808213A8BC2
:100C30007B8B13449BB23B837B8B6FF30F037B83D4
:100C40007B68DB68BA69C3F80C2178681021FFF76C
:100C5000A3FE7868FFF7DAFE7B681B6900221A6141
:100C60007B681B6900225A617B681B694FF0FF3269
:100C70009A617B681B690022DA610023FB623AE01B
:100C80007A68FB6A04339B0013449B681B687B6291
:100C900097F82730C3F3C013DBB2002B0ED000232C
:100CA0007B6297F8273043F0400387F8273097F8A6
:100CB000273043F0080387F8273001E000237B62E8
:100CC0007A68FB6A04339B0013449B687A6A1A6053
:100CD0007A68FB6A04339B0013449B6800221A6104
:100CE0007A68FB6A04339B0013449B68FF229A6076
:100CF000FB6A0133FB627B685B781A46FB6A9A42A7
:100D0000BED80023FB6235E07A68FB6A14339B008F
:100D100013445B681B68FB60FB7BC3F3C013DBB24F
:100D2000002B0AD00023FB60FB7B43F04003FB73E6
:100D3000FB7B43F00803FB7301E00023FB607A6850
:100D4000FB6A14339B0013445B68FA681A607A6884
:100D5000FB6A14339B0013445B6800221A617A68B3
:100D6000FB6A14339B0013445B68FF229A60FB6AA2
:100D70000133FB627B685B781A46FB6A9A42C3D8F0
:100D800000237B617B7D43F001037B757B681B69DE
:100D90007A68126911697A69D24311407A690A4303
:100DA0001A617B68DB78012B1BD100233B613B7C04
:100DB00043F001033B743B7C43F002033B743B8AEA
:100DC000402262F38A033B82BB7C43F00103BB7485
:100DD0007B8A402262F349037B827B681B693A6904
:100DE0001A63786800F006F897F82B301846303709
:100DF000BD4680BD80B584B000AF78600023FB7332
:100E00000023BB607B68DB6800229A617B68DB683B
:100E10004FF0FF325A617868FFF712FB7B68DB788E
:100E2000002B03D13B7A43F010033B727B7A43F0F3
:100E300008037B727B7A43F010037B727B7A43F06A
:100E400020037B72BB7A43F00403BB72BB7A43F08E
:100E50000803BB723B7A43F008033B72BB7A43F052
:100E60001003BB72BB7A43F02003BB727B68DB6864
:100E70007A68D2689169BA68D2431140BA680A4365
:100E80009A61FB7B18461037BD4680BD80B485B0A3
:100E900000AF78600023FB737B681B699B68BB60B5
:100EA0003B7AC3F34103DBB2022B09D0032B04D0FE
:100EB000012B02D00323FB7305E00223FB7302E046
:100EC0000123FB7300BFFB7B18461437BD465DF85A
:100ED000047B704780B487B000AF78600023FB7557
:100EE0000023BB607B681B699B683B617B689B69D7
:100EF0001B68FB603B7CC3F34103DBB2022B04D0D5
:100F0000BB896FF30A03BB8105E0BB89032262F34F
:100F10000A03BB8100BF7B689B69FA681A607B7A11
:100F200043F001037B727B681B697A681269516820
:100F3000BA68D2431140BA680A435A60FB7D18462A
:100F40001C37BD465DF8047B704700BF80B487B096
:100F500000AF786039600023FB740023FB6000233E
:100F6000BB603B685B78012B0FD13B681B787A68CC
:100F700004339B0013449B687B613B681B78012210
:100F800002FA03F39BB23B810EE03B681B787A6860
:100F900014339B0013445B687B613B681B78012220
:100FA00002FA03F39BB27B817B691B68FB607B7B4E
:100FB000C3F3C013DBB2002B27D13B689B689BB205
:100FC000C3F30A039AB2BB8962F30A03BB813B688D
:100FD000DB7803F00303DAB2BB7B62F38303BB73FA
:100FE0003B68DB88DBB203F00F03DAB2FB8962F304
:100FF0008913FB81FB7B43F01003FB737B7B43F086
:1010000080037B73FA687B691A607B681B697A6866
:101010001269D169BA680A43DA61FB7C18461C3749
:10102000BD465DF8047B704780B487B000AF786040
:1010300039600023FB740023FB600023BB603B6826
:101040005B78012B0FD13B681B787A6804339B00D7
:1010500013449B687B613B681B78012202FA03F30F
:101060009BB23B810EE03B681B787A6814339B008F
:1010700013445B687B613B681B78012202FA03F32F
:101080009BB27B817B7B6FF3C7137B73FA687B69B1
:101090001A607B681B697A681269D169BA68D243A1
:1010A0000A40DA61FB7C18461C37BD465DF8047BBC
:1010B000704700BF80B588B000AF7860396000230A
:1010C000FB770023BB6100237B6100233B613B680E
:1010D0005B78012B40F0AB803B681B787A68043367
:1010E0009B0013449B681B687B613B681B787A6894
:1010F00004339B0013449B681B693B613B685B693D
:10110000002B09D13B696FF312033B617B8A0122FB
:1011100062F3CC037B8222E03B685B69C3F312027B
:101120003B6962F312033B613B685A693B689B6809
:1011300013445A1E3B689B68B2FBF3F39BB2C3F3A4
:1011400009039AB27B8A62F3CC037B823B68DB782B
:10115000012B04D1FB7C012262F34613FB743B6834
:101160001B787A6804339B0013449B683A691A61C0
:101170007B68DB78012B0AD13B681B787A680433E3
:101180009B0013449B683A6812695A6115E03B68FA
:10119000DB78012B11D03B685B69002B0DD03B68DD
:1011A0001B78012202FA03F3BB617B681B697A6832
:1011B0001269516BBA690A435A633B68DB78012BA9
:1011C00014D17B681B699B68FB60FB68C3F30D232C
:1011D0009BB203F00103002B04D1FB7D43F02003FD
:1011E000FB7503E0FB7D43F01003FB75FB7D43F0D3
:1011F0000403FB75FB7D43F08003FB753B681B78A4
:101200007A6804339B0013449B687A691A603B68D0
:10121000DB78012B40F088803B68D9683B681A78FE
:101220003B685B699BB27868FFF772F97CE03B68CA
:101230001B787A6814339B0013445B681B687B61DE
:101240003B681B787A6814339B0013445B681B6906
:101250003B613B685B69002B0DD13B689B68C3F326
:1012600012023B6962F312033B617B8A012262F343
:10127000CC037B821FE03B685A693B689B68134440
:101280005A1E3B689B68B2FBF3F39BB2C3F309039E
:101290009AB27B8A62F3CC037B827B8AC3F3C90355
:1012A0009BB23A68926802FB03F3C3F312023B69F4
:1012B00062F312033B613B681B787A6814339B002E
:1012C00013445B683A691A617B68DB78012B09D1AA
:1012D0003B681B787A6814339B0013445B683A6858
:1012E00012695A613B68DB78012B0CD13B685B7952
:1012F000002B04D0FB7D43F02003FB7503E0FB7D56
:1013000043F01003FB75FB7D43F00403FB75FB7D8D
:1013100043F08003FB753B681B787A6814339B00AD
:1013200013445B687A691A60FB7F18462037BD4614
:1013300080BD00BF80B489B000AF78603960002301
:10134000FB770023BB6100233B610023BB603B684C
:101350005B78012B6FD17B689B697B617B691B6824
:101360003B617B691B69BB603B685B69002B09D1F2
:101370003B7A6FF306033B72BB7A012262F3C4032C
:10138000BB7223E03B685A693B689B689A420ED95E
:101390003B689A683B685A613B689B68DBB203F024
:1013A0007F03DAB23B7A62F306033B7209E03B68E3
:1013B0005B69DBB203F07F03DAB23B7A62F30603C8
:1013C0003B72BB7A012262F3C403BB72BA687B69C9
:1013D0001A617B68DB78012B09D13B681B787A683E
:1013E00004339B0013449B683A6812695A61FB7C82
:1013F00043F00403FB74FB7C43F08003FB743A6905
:101400007B691A607B68DB78002B75D13B685B6970
:10141000002B71D03B681B78012202FA03F3BA69F2
:101420001343BB617B681B697A681269516BBA69A7
:101430000A435A6360E03B681B787A6814339B0068
:1014400013445B681B683B613B681B787A68143304
:101450009B0013445B681B69BB603B685B69002BA6
:101460000FD13B689B68DBB203F07F03DAB23B7AB3
:1014700062F306033B72BB7A012262F3C403BB72C0
:1014800012E03B689A683B685A613B689B68DBB234
:1014900003F07F03DAB23B7A62F306033B72BB7A56
:1014A000012262F3C403BB723B681B787A68143371
:1014B0009B0013445B68BA681A617B68DB78012B78
:1014C00009D13B681B787A6814339B0013445B682E
:1014D0003A6812695A61FB7C43F00403FB74FB7C9D
:1014E00043F08003FB743B681B787A6814339B00DD
:1014F00013445B683A691A60FB7F18462437BD467F
:101500005DF8047B704700BF80B487B000AF78609F
:1015100039600023FB750023FB603B685B78012B7F
:101520001CD13B681B787A6804339B0013449B688A
:101530003B613B691B68FB60FB7BC3F3C013DBB201
:10154000002B03D0FB7B43F04003FB73BB7B43F0DA
:101550002003BB73FA683B691A6011E03B681B7893
:101560007A6814339B0013445B683B613B691B68DA
:10157000FB60BB7B43F02003BB73FA683B691A60D6
:10158000FB7D18461C37BD465DF8047B704700BFE5
:1015900080B487B000AF786039600023FB7400230B
:1015A000FB603B685B78012B08D13B681B787A684D
:1015B00004339B0013449B687B6107E03B681B7806
:1015C0007A6814339B0013445B687B617B691B68FA
:1015D000FB60BB7B6FF34513BB733B68DB78032B6E
:1015E00003D03B68DB78022B03D1FB7B43F0100375
:1015F000FB73FA687B691A60FB7C18461C37BD4692
:101600005DF8047B704700BF80B485B000AF7860A0
:101610007B681B699B69FB607B681B69DB69FA68F7
:101620001340FB60FB681B0C18461437BD465DF881
:10163000047B704780B485B000AF78600B46FB70C8
:10164000FB787A6814339B0013445B689B68FB60EB
:101650007B681B695B69FA681340FB60FB6818468E
:101660001437BD465DF8047B704700BF80B485B079
:1016700000AF78607B681B699B69FB607B681B69B6
:10168000DB69FA681340FB60FB689BB218461437AD
:10169000BD465DF8047B704780B487B000AF7860CA
:1016A00000233B61FB7C43F0C003FB74BB7C012245
:1016B00062F3C403BB743B7C182262F306033B74E1
:1016C0007B685B6D3A691A617B68DB78012B16D108
:1016D0000023FB607B685B6D7A6802F5B9625A6132
:1016E0007B685B6D1B68FB60FB7B43F08003FB73D7
:1016F0004FF08023FB607B685B6DFA681A601C37D3
:10170000BD465DF8047B704780B485B000AF78605B
:101710007B689B7A002B1BD07B681B699B68FB60F6
:101720003B7BC3F30003DBB2012B11D17B6803F5D4
:1017300086731B68BB603B7A6FF341033B723B7A55
:101740006FF300033B727B68D3F80C31BA681A6000
:101750001437BD465DF8047B704700BF80B584B088
:1017600000AF39600146F971BA80BB713A68254B08
:101770009A4204D10120012101F012FE22E03A68D0
:10178000214B9A4204D10220012101F009FE19E007
:101790003A681E4B9A4204D10420012101F000FE58
:1017A00010E03A681A4B9A4204D10820012101F056
:1017B000F7FD07E03A68174B9A4203D11020012148
:1017C00001F0EEFD07F10803184602F0E3FBBB88C9
:1017D000BB60FB793B733B7EBB73BB79FB7303231D
:1017E0007B7307F108033868194602F045FBFB7963
:1017F000012B04D1BB883868194602F0FFFB103773
:10180000BD4680BD000002400004024000080240C6
:10181000000C02400010024080B400AFBD465DF8ED
:10182000047B704780B483B000AF0346FB71FB7943
:10183000002B02D0012B02D002E000BF00E000BF6D
:101840000C37BD465DF8047B704700BF80B400AF25
:10185000BD465DF8047B704780B400AFBD465DF8BF
:10186000047B704780B400AFBD465DF8047B7047D1
:1018700080B400AFBD465DF8047B704780B400AF14
:10188000BD465DF8047B704780B500AF0E4B1B88EA
:101890009BB21B099BB2002B05D00C4B1B685A1C3A
:1018A0000A4B1A600BE0084B1B889BB21B099BB2CA
:1018B000002B04D1064B1B685A1C054B1A600248CA
:1018C000012105F0FDFE80BD0000014078050020EB
:1018D0007405002080B500AF4FF080431B889BB299
:1018E0001B099BB2002B05D00C4B1B685A1C0B4BE1
:1018F0001A600CE04FF080431B889BB21B099BB21F
:10190000002B04D1064B1B685A1C054B1A604FF084
:101910008040012105F0D4FE80BD00BF800500207D
:101920007C05002080B500AF0E4B1B889BB21B09C5
:101930009BB2002B05D00C4B1B685A1C0A4B1A603B
:101940000BE0084B1B889BB21B099BB2002B04D1F8
:10195000064B1B685A1C054B1A600248012105F012
:10196000AFFE80BD000400408805002084050020F3
:1019700080B500AF0E4B1B889BB21B099BB2002B9E
:1019800005D00C4B1B685A1C0A4B1A600BE0084B25
:101990001B889BB21B099BB2002B04D1064B1B6812
:1019A0005A1C054B1A600248012105F089FE80BDD2
:1019B00000080040900500208C05002080B500AF95
:1019C0000E4B1B889BB21B099BB2002B05D00C4B06
:1019D0001B685A1C0A4B1A600BE0084B1B889BB211
:1019E0001B099BB2002B04D1064B1B685A1C054BEC
:1019F0001A600248012105F063FE80BD000C004022
:101A0000980500209405002080B500AF0E4B1B8880
:101A10009BB21B099BB2002B05D00C4B1B685A1CB8
:101A20000A4B1A600BE0084B1B889BB21B099BB248
:101A3000002B04D1064B1B685A1C054B1A60024848
:101A4000012105F03DFE80BD00040140A0050020FD
:101A50009C05002080B582B000AF0346FB71FB7986
:101A6000184602F0B7FB0837BD4680BD80B582B08E
:101A700002AF054B009305480121054A054B00F0D4
:101A80009DFCBD4680BD00BF00000020F806002080
:101A90005C0000201401002080B483B000AF01235B
:101AA000FB8000233B6000BF3B685A1C3A600B4A36
:101AB0009342F9D90A4BFA88120392B25A83FB88EF
:101AC0005B00FB80FB880F2B01D90123FB80044BBB
:101AD000FA88120392B21A83E3E700BF1FA107003E
:101AE000000C024080B400AFBD465DF8047B704737
:101AF00080B500AFFFF7D0FF80BD00BF80B500AF5D
:101B0000FFF7CAFF80BD00BF80B500AFFFF7C4FF7D
:101B100080BD00BF80B500AFFFF7BEFF80BD00BF36
:101B200080B400AFBD465DF8047B704780B400AF61
:101B3000BD465DF8047B704780B400AFBD465DF8DC
:101B4000047B704780B500AF014803F097FB80BD70
:101B5000F806002080B500AF094B9B7A002B0AD015
:101B6000084B084A126822F006021A6002F0A8FB2D
:101B70000348FFF7C9FD4FF4802004F0FBFA80BD55
:101B8000F806002010ED00E080B58AB000AF786064
:101B9000396000237B6200233B620023FB6100234A
:101BA000BB617B681B8A9BB27B627B6A23F44053D8
:101BB0007B623B68DB887A6A13437B627B6A9AB2FA
:101BC0007B681A827B689B899BB27B627B6A23F469
:101BD000B05323F00C037B623B689A883B681B89F7
:101BE00013439AB23B685B8913439BB27A6A1343EF
:101BF0007B627B6A9AB27B689A817B689B8A9BB284
:101C00007B627B6A23F440737B623B689B897A6AC0
:101C100013437B627B6A9AB27B689A8207F108035E
:101C2000184601F013FB7A68314B9A4203D07A6868
:101C3000304B9A4202D17B693B6201E03B693B62D7
:101C40007B689B899BB29BB21BB2002B0CDA3A6A71
:101C500013469B0013449A001A443B681B685B00C0
:101C6000B2FBF3F3FB610BE03A6A13469B001344AB
:101C70009A001A443B681B689B00B2FBF3F3FB61BC
:101C8000FA691D4BA3FB02135B091B017B627B6A94
:101C90001B09642202FB03F3FA69D31ABB617B6858
:101CA0009B899BB29BB21BB2002B0DDABB69DB0098
:101CB00003F13202104BA3FB02135B0903F007038D
:101CC0007A6A13437B620CE0BB691B0103F13202A9
:101CD000094BA3FB02135B0903F00F037A6A13435A
:101CE0007B627B6A9AB27B681A812837BD4680BDC9
:101CF00000100140001401401F85EB5180B483B0F7
:101D000000AF78600B46FB70FB78002B08D07B6837
:101D10009B899BB243F400539AB27B689A8107E097
:101D20007B689B899BB223F400539AB27B689A81AB
:101D30000C37BD465DF8047B704700BF80B483B0AC
:101D400000AF78607B689B889BB2C3F308039BB2AB
:101D500018460C37BD465DF8047B704780B487B0E9
:101D600000AF786013460A467A807B7000233B619F
:101D70000023FB600023BB6000237B617B687B61E9
:101D80007B88DBB25B09DBB23B617B8803F01F031E
:101D9000FB60FB68012202FA03F3BB603B69012B85
:101DA00003D17B690C337B6109E03B69022B03D1D2
:101DB0007B6910337B6102E07B6914337B617B7844
:101DC000002B06D07B697A691168BA680A431A60E9
:101DD00006E07B697A691168BA68D2430A401A60E2
:101DE0001C37BD465DF8047B704700BF0000000053
:101DF00080B588B000AF786039600023FB6107F1DF
:101E0000080300221A60043300221A6004330022FF
:101E10001A60043300221A60043300221A6004336B
:101E20003B68002B03D17B68302098474DE00023AE
:101E3000FB6126E03968284BA3FB0123DA0813462F
:101E40009B0013445B00CA1AD2B207F10801FB6978
:101E50000B441A70386808F003FE02460B46104621
:101E600019461BA3D3E9002308F070FE02460B4677
:101E70001046194609F02CF903463B60FB69013313
:101E8000FB613B68002B0CBF00230123DAB2FB6926
:101E9000132BCCBF00230123DBB21340DBB2002B9A
:101EA000C8D1FB69013BFB610CE007F10802FB694B
:101EB00013441B783033DAB27B6810469847FB69CD
:101EC000013BFB61FB69002BEFDA2037BD4680BD8B
:101ED0009A9999999999B93FCDCCCCCCAFF3008020
:101EE00080B582B000AF786039603B68002B09DABA
:101EF0007B682D2098473B685B4278681946FFF75E
:101F000077FF04E03B6878681946FFF771FF0837F0
:101F1000BD4680BD00000000B0B52DED028B88B03D
:101F200000AF786087ED000A0323BB610023FB61EB
:101F300000237B614FF00003FB604FF000033B6127
:101F400007F10C0397ED000A184605F075FC87EDC4
:101F5000040AD7ED037AFDEEE77A17EE903A786837
:101F60001946FFF7BDFF7B682E209847D7ED047A0E
:101F7000B0EEE78ABB6907EE103AF8EEC77AB2EE28
:101F8000040AF0EE670A05F04FFEF0EE407A68EEC4
:101F9000277AB0EE670A05F07DFCF0EE407AFDEEA0
:101FA000E77A17EE903A7B610123FB6105E07B68DD
:101FB00030209847FB690133FB61BA69FB69D31A8A
:101FC000184608F05DFD02460B469FED110B43ECF1
:101FD000112B05F089FC55EC104B786908F050FD89
:101FE00002460B462046294609F040F80346002BDE
:101FF00003D0FA69BB699A42D9DB78687969FFF73F
:102000006FFF2037BD46BDEC028BB0BDAFF3008043
:10201000000000000000244080B584B000AF78606C
:1020200039600023FB600023FB6009E0FB683A682D
:1020300013441A787B6810469847FB680133FB60AD
:10204000FB683A6813441B78002B02D0FB68132B03
:10205000ECDD1037BD4680BD80B582B000AF786042
:102060007B680D2098477B680A2098470837BD4653
:1020700080BD00BF80B584B000AFF860B96087ED67
:10208000010AF868B968FFF7C7FFFB682C2098477A
:10209000F86897ED010AFFF73FFFFB682C2098478F
:1020A0001037BD4680BD00BF80B582B000AF03468B
:1020B00087ED000AFB71FB79184697ED000A0121B4
:1020C00000F01AF80837BD4680BD00BF80B582B069
:1020D00000AF0346FB71FB7918469FED060A00210D
:1020E00000F00AF8F0EE407AB0EE670A0837BD4615
:1020F00080BD00BF0000000080B487B000AF034681
:1021000087ED020A7960FB734FF000037B61FB7B74
:10211000602B19D9FB7B7A2B16D87B68012B07D152
:10212000FB7B613B1B4A9B001344BA681A600AE0C0
:102130007B68002B07D1FB7B613B164A9B00134455
:102140001B687B611BE01AE0FB7B402B17D9FB7BF4
:102150005A2B14D87B68012B07D1FB7B413B0E4ADD
:102160009B001344BA681A6009E07B68002B06D113
:10217000FB7B413B084A9B0013441B687B617B69E6
:1021800007EE903AB0EE670A1C37BD465DF8047B57
:10219000704700BFA40500200C06002000000000CE
:1021A0002DE9B04384B000AF0346FB710023FB6010
:1021B000FB79232B1BD15E4B1B68012B07D15D4B99
:1021C000D3ED007AF1EE677A5A4BC3ED007A5A4BA1
:1021D0001B78584AD2ED007A1846B0EE670AFFF72E
:1021E00063FF0123FB60544B00221A7087E0FB79E8
:1021F0002F2B52D9FB79392B4FD8504B00221A6024
:102200004F4B1B68002B12D14A4B93ED007AF2EE34
:10221000047A27EE277AFB79303B06EE903AF8EE07
:10222000E67A77EE277A434BC3ED007A67E0454BB9
:102230001B685A1C434B1A603E4B1B68184608F03B
:1022400031FC04460D46FB79303B184608F018FC7B
:10225000804689463B4B1B68184608F011FC024635
:102260000B469FED310B43EC112B05F03DFB53EC7E
:10227000102B4046494608F069FC02460B462046B2
:10228000294608F0B1FA02460B461046194608F0F6
:102290003FFF0246274B1A6031E0FB79602B02D9E1
:1022A000FB797A2B05D9FB79402B0BD9FB795A2B7B
:1022B00008D80123FB60204BFA791A701F4B0122CA
:1022C0001A601CE0FB792D2B0FD11C4B1B68012BD6
:1022D0000BD1174B1B68002B03D1154B01221A6041
:1022E0000DE0134B00221A6009E0FB792E2B06D17A
:1022F000124B1B68002B02D1114B01221A60FB68A4
:10230000012B0CD10B4B4FF000021A600D4B002239
:102310001A600B4B00221A60054B00221A6010371E
:10232000BD46BDE8B08300BF9A9999999999B93F84
:1023300074060020780600207C060020800600201D
:10234000840600208806002080B582B000AF134BC1
:102350007B60134B3B6007E03B681A1D3A607A686C
:10236000111D796012681A603A680E4B9A42F3D3D5
:102370000D480E494FF000028842B8BF40F8042BC8
:10238000FFF6FAAFDFF82800016841F47001016040
:1023900000F0AAFE0837BD4680BD00BFC4B40008E7
:1023A0000000002074050020740500204016002065
:1023B00088ED00E080B400AFFEE700BF80B584B0D8
:1023C00000AFF8607A603B600B46FB72F86802F081
:1023D0001BFAF86800F01CF8FB683A68C3F8E025BF
:1023E000FB68BA69C3F8E425FB687A68C3F8E82596
:1023F000FB7AF868194604F0B7FAFB68D3F8E435BD
:102400001B689847F86802F057FA1037BD4680BD40
:1024100080B483B000AF7860002318460C37BD4607
:102420005DF8047B704700BF80B584B000AF786072
:1024300007F108037868194602F060FE3B7A03F062
:102440001F03012B0AD0022B0FD0002B14D107F150
:1024500008037868194602F07BFA16E007F10803D2
:102460007868194602F0C4FA0FE007F108037868AB
:10247000194602F0F1FA08E03B7A23F07F03DBB261
:102480007868194604F0F2FB00BF002318461037A5
:10249000BD4680BD80B584B000AF78600B46FB7050
:1024A000FB78002B45D17B6803F55C73FB607B6890
:1024B00093F81131032B4FD1FB68DA69FB689B68F5
:1024C0009A4221D9FB68DA69FB689B68D21AFB68DB
:1024D000DA617B68DB78012B06D1FB68DA68FB6880
:1024E0009B681A44FB68DA60FB68DA68FB689968E5
:1024F000FB68DB69994238BF0B469BB2786811468E
:102500001A4604F099FC27E07B68D3F8E0351B6994
:10251000002B0AD07B6893F81231032B05D17B681E
:10252000D3F8E0351B6978689847786804F098FC20
:1025300012E07B68D3F8E0359B69002B0CD07B68F8
:1025400093F81231032B07D17B68D3F8E0359B69F0
:10255000FA78786811469847002318461037BD4628
:1025600080BD00BF80B584B000AF78600B46FB70C3
:10257000FB78002B60D17B6803F58C73FB607B6874
:1025800093F81131022B6AD1FB68DA69FB689B680A
:102590009A421CD9FB68DA69FB689B68D21AFB680F
:1025A000DA617B68DB78012B06D1FB68DA68FB68AF
:1025B0009B681A44FB68DA60FB68DA68FB68DB69D1
:1025C0009BB2786811461A4604F002FC47E0FB68AB
:1025D0001B6AFA689268B3FBF2F102FB01F29B1AE4
:1025E000002B14D1FB681A6AFB689B689A420ED3D1
:1025F000FB681A6AFB685B6A9A4208D27868002115
:10260000002204F0E5FBFB6800225A6227E07B68A9
:10261000D3F8E035DB68002B0AD07B6893F81231E1
:10262000032B05D17B68D3F8E035DB6878689847E1
:10263000786804F02DFC12E07B68D3F8E0355B6924
:10264000002B0CD07B6893F81231032B07D17B68E9
:10265000D3F8E0355B69FA7878681146984700232B
:1026600018461037BD4680BD80B582B000AF786097
:10267000786800214022002304F0F6F97868802170
:102680004022002304F0F0F97B68012283F8122134
:102690007B68D3F8E4355B687A689278104698478F
:1026A000002318460837BD4680BD00BF80B582B004
:1026B00000AF78607B68D3F8E4351B6998477B6886
:1026C000032283F81221002318460837BD4680BD37
:1026D00080B582B000AF78607B68042283F8122155
:1026E0007B68D3F8E435DB68984700231846083741
:1026F000BD4680BD80B582B000AF78607B68D3F8FE
:10270000E035DB69002B05D07B68D3F8E035DB6969
:1027100078689847002318460837BD4680BD00BF3B
:1027200080B582B000AF78600B46FB707B68D3F851
:10273000E0351B68FA787868114698477B68D3F8CB
:10274000E4359B689847002318460837BD4680BD8E
:1027500080B582B000AF78600B46FB707B68D3F821
:10276000E0355B68FA787868114698470023184688
:102770000837BD4680BD00BF80B582B000AF78602D
:102780007B68D3F8E0351B6A7868984700231846C1
:102790000837BD4680BD00BF80B582B000AF78600D
:1027A0007B68D3F8E0355B6A786898470023184661
:1027B0000837BD4680BD00BF2DE9B04F8EB000AFD9
:1027C00078600023BB6200237B6200233B624FF0F2
:1027D0000003FB614FF00003BB614FF000037B611E
:1027E0004FF000037B634FF000033B634FF00003A7
:1027F000FB624FF000033B614FF00003FB604FF0C2
:102800000003BB606120FFF761FCF0EE407AFDEE53
:10281000E77A17EE903ABB626220FFF757FCF0EEC2
:10282000407AFDEEE77A17EE903A7B626320FFF77D
:102830004DFCF0EE407AFDEEE77A17EE903A3B62FF
:10284000554B1B68BA6AD31A184608F019F90246A4
:102850000B46104619464AA3D3E9002308F076F93F
:1028600002460B461046194608F052FC0346FB612F
:102870004A4B1B687A6AD31A184608F001F90246D7
:102880000B46104619463EA3D3E9002308F05EF933
:1028900002460B461046194608F03AFC0346BB6157
:1028A0003F4B1B683A6AD31A184608F0E9F802460B
:1028B0000B461046194632A3D3E9002308F046F927
:1028C00002460B461046194608F022FC03467B617F
:1028D00097ED077ADFED337AC7EE277AC7ED047AF2
:1028E00097ED067ADFED2F7AC7EE277AC7ED037AE8
:1028F00097ED057ADFED2B7AC7EE277AC7ED027ADE
:102900007B6893ED007AD7ED046AD7ED037A76EE13
:10291000A76AD7ED027A76EEA76AF0EE087AC6EEDD
:10292000A77A77EE277A7B68C3ED007A7B681B680D
:10293000184608F0B7F802460B461046194612A38F
:10294000D3E9002308F092FB0346002B2CD07B68D0
:102950001B68184608F0A6F802460B4610461946B2
:102960000BA3D3E9002307F03DFF02460B461046B8
:10297000194608F0CDFB02467B681A603CE000BFB8
:10298000B8AF03E78C28CE3F6F1283C0CA2109403D
:102990006F1283C0CA2119408C06002090060020C7
:1029A000940600200000AF427B681B68184608F0C0
:1029B00079F802460B4610461946C7A3D3E900230F
:1029C00008F036FB0346002B16D07B681B681846C0
:1029D00008F068F802460B4610461946C0A3D3E932
:1029E000002307F001FF02460B461046194608F087
:1029F0008FFB02467B681A607B68D3ED007AB0EEED
:102A0000670A00F00DFBF0EE407A7B68C3ED017AB7
:102A1000D7ED077AF5EEC07AF1EE10FA01D5A84BA2
:102A20007B63D7ED067AF5EEC07AF1EE10FA01D5A8
:102A3000A34B3B63D7ED057AF5EEC07AF1EE10FAC1
:102A400001D59F4BFB629F4B1B68184608F02AF884
:102A500004460D46D7ED077AF0EEE77A17EE900AB6
:102A600008F020F8804689467B685B68184608F0C5
:102A700019F802460B46104619464FF00002924BD9
:102A800007F0B2FE02460B4692469B46786B08F072
:102A900009F802460B465046594607F0A5FE024685
:102AA0000B461046194608F033FB034600EE103A79
:102AB00000F0E6FA10EE103A184607F0F3FF02466F
:102AC0000B4643EC102B04F00BFE53EC102B40464E
:102AD000494608F03BF802460B461046194607F0F7
:102AE00083FE02460B462046294607F07DFE02463D
:102AF0000B461046194608F00BFB0246714B1A6054
:102B0000724B1B68184607F0CDFF04460D46D7ED03
:102B1000077AF0EEE77A17EE900A07F0C3FF8046D7
:102B200089467B685B68184607F0BCFF02460B4687
:102B3000104619464FF00002634B07F055FE02465F
:102B40000B4692469B46786B07F0ACFF02460B465D
:102B50005046594607F048FE02460B4610461946B5
:102B600008F0D6FA034600EE103A00F089FA10EEAB
:102B7000103A184607F096FF02460B4643EC102B1E
:102B800004F002FE53EC102B4046494607F0DEFFEE
:102B900002460B461046194607F026FE02460B4633
:102BA0002046294607F020FE02460B4610461946ED
:102BB00008F0AEFA0246454B1A60454B1B681846B2
:102BC00007F070FF04460D46D7ED067AF0EEE77A7F
:102BD00017EE900A07F066FF804689467B685B68BF
:102BE000184607F05FFF02460B461046194632A30F
:102BF000D3E9002307F0F6FD02460B4692469B46BA
:102C0000386B07F04FFF02460B465046594607F017
:102C1000EBFD02460B461046194608F079FA0346CA
:102C200000EE103A00F02CFA10EE103A184607F0B9
:102C300039FF02460B4643EC102B04F051FD53ECD8
:102C4000102B4046494607F081FF02460B461046CE
:102C5000194607F0C9FD02460B462046294607F0F3
:102C6000C3FD02460B461046194608F051FA0246CB
:102C7000174B1A60174B1B68184607F013FF0446E2
:102C80000D46D7ED067AF0EEE77A17EE900A07F0D8
:102C900009FF804689467B685B68184607F002FF9B
:102CA00002460B461046194603A3D3E9002307F05A
:102CB00099FD024618E000BF0000000000C062401D
:102CC0000000344398060020008056409C060020F7
:102CD000A0060020A40600206F1283C0CA2109C0EC
:102CE0006F1283C0CA2119400B4692469B46386B2F
:102CF00007F0D8FE02460B465046594607F074FDD1
:102D000002460B461046194608F002FA034600EE4A
:102D1000103A00F0B5F910EE103A184607F0C2FE6E
:102D200002460B4643EC102B04F02EFD53EC102B07
:102D30004046494607F00AFF02460B461046194630
:102D400007F052FD02460B462046294607F04CFD8F
:102D500002460B461046194608F0DAF90246784B4F
:102D60001A60784B1B68184607F09CFE04460D4617
:102D7000D7ED057AF0EEE77A17EE900A07F092FEAB
:102D8000804689467B685B68184607F08BFE0246E2
:102D90000B46104619464FF000026B4B07F022FD20
:102DA00002460B4692469B46F86A07F07BFE0246B7
:102DB0000B465046594607F017FD02460B46104693
:102DC000194608F0A5F9034600EE103A00F058F94C
:102DD00010EE103A184607F065FE02460B4643EC2B
:102DE000102B04F07DFC53EC102B4046494607F0B5
:102DF000ADFE02460B461046194607F0F5FC0246AA
:102E00000B462046294607F0EFFC02460B461046CB
:102E1000194608F07DF902464A4B1A604B4B1B6875
:102E2000184607F03FFE04460D46D7ED057AF0EE52
:102E3000E77A17EE900A07F035FE804689467B68F0
:102E40005B68184607F02EFE02460B4610461946F0
:102E50004FF000023C4B07F0C5FC02460B46924681
:102E60009B46F86A07F01EFE02460B46504659463E
:102E700007F0BAFC02460B461046194608F048F91E
:102E8000034600EE103A00F0FBF810EE103A184638
:102E900007F008FE02460B4643EC102B04F074FCCE
:102EA00053EC102B4046494607F050FE02460B46B5
:102EB0001046194607F098FC02460B462046294664
:102EC00007F092FC02460B461046194608F020F91E
:102ED00002461E4B1A601E4B93ED007A1D4BD3ED3C
:102EE000007A37EE277A174BD3ED007A37EE277A40
:102EF000F0EE087AC7EE277A7B68C3ED027A164BAC
:102F000093ED007A0E4BD3ED007A37EE277A0F4B14
:102F1000D3ED007A37EE277AF0EE087AC7EE277AFB
:102F20007B68C3ED037A0D4BBA6A1A600C4B7A6A60
:102F30001A600C4B3A6A1A603837BD46BDE8B08F4C
:102F4000A4060020A806002000003E40AC06002099
:102F500098060020A00600209C0600208C06002079
:102F6000900600209406002080B582B002AF0023B6
:102F700000930120244920220023FEF7EFFB0023C9
:102F80000093012020494FF400620023FEF7E6FB86
:102F90001E481D494FF400724FF47A73FDF7F4F8A0
:102FA0000023009301201A4910220023FEF7D6FBCC
:102FB000002300930120174980220023FEF7CEFB57
:102FC0001248154902224FF47A73FDF7DDF8002309
:102FD0000093012010494FF480520023FEF7BEFBFE
:102FE0000023009301200C494FF480620023FEF778
:102FF000B5FB064804494FF480424FF47A73FDF75D
:10300000C3F8BD4680BD00BF001002400000014073
:1030100000080240000002400004024000000000DE
:1030200080B584B000AF87ED010A97ED017ADFED3E
:10303000127A67EE277A17EE900A07F033FD024600
:103040000B46104619460AA3D3E9002307F0A8FE51
:1030500002460B46C7E90223D7E9020108F058F8F7
:10306000034607EE903AB0EE670A1037BD4680BDC2
:103070006F1283C0CA21094000003443AFF30080BF
:1030800080B584B000AF87ED010A786807F00AFDCB
:1030900002460B461046194610A3D3E9002307F059
:1030A00055FD02460B46104619464FF000020A4BEA
:1030B00007F076FE02460B46C7E90223D7E9020174
:1030C00008F026F8034607EE903AB0EE670A10378C
:1030D000BD4680BDAFF30080008066406F1283C0A4
:1030E000CA210940AFF3008080B588B002AF01F07B
:1030F000E7F89FED4A0A00F09DFE4948202100F0C4
:1031000069FC484B00934FF40073019346484FF419
:10311000E131444A4FF4807303F0ECFEFEF7A6FC65
:103120000023009301203E494FF400420123FEF7A3
:1031300015FB0023009300203C494FF4005202236A
:10314000FEF70CFB002300930120394902220123E2
:10315000FEF704FBFFF708FF01237B6100233B61BF
:1031600009E032484FF4005100F02EFF0346012BD6
:1031700001D100237B617B69002BF2D100E000BF0D
:103180002C4B1B68042B47DD2A4B00221A603B4660
:103190001846FFF711FB3B69042B02DD00233B615E
:1031A00002E03B6901333B613B69042BE7D801A294
:1031B00052F823F0C9310008DB310008ED31000876
:1031C000FF31000811320008D7ED007A1A481B4978
:1031D000B0EE670AFEF74EFF1EE0D7ED017A164803
:1031E0001749B0EE670AFEF745FF15E0D7ED027A02
:1031F00011481449B0EE670AFEF73CFF0CE0D7ED2A
:10320000037A0D481049B0EE670AFEF733FF03E07A
:103210000948FEF721FF00BFB1E700BF6F12833AF4
:1032200000000240000C024000480040000802403C
:1032300000100240C0060020551A0008C4B1000862
:10324000CCB10008D4B10008E0B1000880B489B066
:1032500000AF78600023BB6100237B610023FB612A
:1032600002233B610023FB600223BB60484B9B6849
:1032700003F00C03BB61BB69042B07D0082B09D0FA
:10328000002B3FD17B68434A1A603FE07B68424A8B
:103290001A603BE03E4B5B6803F480039B0DFB60D0
:1032A0003B4B5B6803F03F03BB60FB68002B0DD01A
:1032B000394ABB68B2FBF3F2354B596847F6C07325
:1032C0000B409B0903FB02F3FB610CE0314ABB6836
:1032D000B2FBF3F22E4B596847F6C0730B409B09C3
:1032E00003FB02F3FB612A4B5B6803F440331B0CC6
:1032F00001335B003B61FA693B69B2FBF3F27B6827
:103300001A6003E07B68234A1A6000BF204B9B6869
:1033100003F0F003BB61BB691B09BB611F4ABB69BA
:1033200013441B78DBB27B617B681A687B69DA40E7
:103330007B685A60164B9B6803F4E053BB61BB6922
:103340009B0ABB61154ABB6913441B78DBB27B61E6
:103350007B685A687B69DA407B689A600C4B9B6893
:1033600003F46043BB61BB695B0BBB610B4ABB6988
:1033700013441B78DBB27B617B685A687B69DA4057
:103380007B68DA602437BD465DF8047B704700BF78
:10339000003802400024F40000127A004C000020A3
:1033A00080B483B000AF78600B46FB70FB78002BD5
:1033B00006D0094B084A116B7A680A431A6306E083
:1033C000054B054A116B7A68D2430A401A630C37E1
:1033D000BD465DF8047B70470038024080B483B07E
:1033E00000AF78600B46FB70FB78002B06D0094BD2
:1033F000084A516B7A680A435A6306E0054B054A4E
:10340000516B7A68D2430A405A630C37BD465DF867
:10341000047B70470038024080B483B000AF78600E
:103420000B46FB70FB78002B06D0094B084A116C49
:103430007A680A431A6406E0054B054A116C7A68FB
:10344000D2430A401A640C37BD465DF8047B7047CE
:103450000038024080B483B000AF78600B46FB7048
:10346000FB78002B06D0094B084A516C7A680A4356
:103470005A6406E0054B054A516C7A68D2430A400B
:103480005A640C37BD465DF8047B70470038024033
:1034900080B483B000AF78600B46FB70FB78002BE4
:1034A00006D0094B084A116A7A680A431A6206E094
:1034B000054B054A116A7A68D2430A401A620C37F2
:1034C000BD465DF8047B70470038024080B483B08D
:1034D00000AF78600B46FB70FB78002B06D0094BE1
:1034E000084A516A7A680A435A6206E0054B054A5F
:1034F000516A7A68D2430A405A620C37BD465DF879
:10350000047B70470038024080B500AF4FF48070F4
:103510000121FFF7DBFF4FF480700021FFF7D6FF9A
:1035200080BD00BF80B485B000AF786039600023F3
:10353000FB600023FB727B685B68FB60FB6823F029
:10354000407323F48073FB603B681B791A023B686D
:103550001B681343FA681343FB607B68FA685A6080
:103560007B689B68FB60FA68174B1340FB603B6805
:103570001A693B68DB681A433B689B681A433B68DF
:103580005B795B001343FA681343FB607B68FA685E
:103590009A607B68DB6AFB60FB6823F47003FB6066
:1035A0003B681B7D013BDAB2FB7A1343FB72FB7A6B
:1035B0001B05FA681343FB607B68FA68DA6214370C
:1035C000BD465DF8047B7047FDF7FFC080B483B053
:1035D00000AF78607B6800221A607B6800221A7155
:1035E0007B6800225A717B6800229A607B68002207
:1035F000DA607B6800221A617B6801221A750C3739
:10360000BD465DF8047B704780B485B000AF78603C
:103610000023FB600E4B5B68FB60FA680D4B1340A8
:10362000FB607B681A687B685B681A437B689B68F1
:103630001A437B68DB681343FA681343FB60044B4F
:10364000FA685A601437BD465DF8047B704700BFC6
:1036500000230140E030FCFF80B483B000AF78600D
:103660007B6800221A607B6800225A607B68002217
:103670009A607B680022DA600C37BD465DF8047BF7
:10368000704700BF80B483B000AF78600B46FB701A
:10369000FB78002B06D07B689B6843F001027B68B7
:1036A0009A6005E07B689B6823F001027B689A6062
:1036B0000C37BD465DF8047B704700BF80B485B011
:1036C00000AF7860F970BA707B700023FB60002354
:1036D000BB60FB78092B23D97B68DB68FB60FB7838
:1036E000A3F10A0213465B001344072202FA03F314
:1036F000BB60BB68DB43FA681340FB607978FB78FA
:10370000A3F10A0213465B00134401FA03F3BB6002
:10371000FA68BB681343FB607B68FA68DA601EE0F6
:103720007B681B69FB60FA7813465B001344072231
:1037300002FA03F3BB60BB68DB43FA681340FB602B
:103740007978FA7813465B00134401FA03F3BB60FF
:10375000FA68BB681343FB607B68FA681A61BB7840
:10376000062B21D87B685B6BFB60BB785A1E134627
:103770009B0013441F2202FA03F3BB60BB68DB43C8
:10378000FA681340FB60F978BB785A1E13469B0019
:10379000134401FA03F3BB60FA68BB681343FB6090
:1037A0007B68FA685A6347E0BB780C2B21D87B68AA
:1037B0001B6BFB60BB78DA1F13469B0013441F2270
:1037C00002FA03F3BB60BB68DB43FA681340FB609B
:1037D000F978BB78DA1F13469B00134401FA03F310
:1037E000BB60FA68BB681343FB607B68FA681A63C6
:1037F00022E07B68DB6AFB60BB78A3F10D02134615
:103800009B0013441F2202FA03F3BB60BB68DB4337
:10381000FA681340FB60F978BB78A3F10D021346F8
:103820009B00134401FA03F3BB60FA68BB681343BF
:10383000FB607B68FA68DA621437BD465DF8047B8A
:10384000704700BF80B483B000AF78607B689B682E
:1038500043F080427B689A600C37BD465DF8047B7C
:10386000704700BF80B483B000AF78600B46FB7038
:10387000FB78002B06D07B689B6843F480727B68E2
:103880009A6005E07B689B6823F480727B689A608D
:103890000C37BD465DF8047B704700BF80B483B031
:1038A00000AF78600B46FB70FB78002B06D07B687E
:1038B0009B6843F400727B689A6005E07B689B68B4
:1038C00023F400727B689A600C37BD465DF8047B78
:1038D000704700BF80B485B000AF78600B467B8036
:1038E000FF23FB737A68384B9A422FD17B88012BD8
:1038F00002D10023FB7360E07B88022B02D10123FD
:10390000FB735AE07B88042B02D10223FB7354E043
:103910007B88082B02D10323FB734EE07B88102B9E
:1039200002D10423FB7348E07B88202B02D10523BE
:10393000FB7342E07B88402B02D10623FB733CE003
:103940007B88802B39D10723FB7336E07A681F4BC5
:103950009A420BD17B88012B02D10823FB732CE008
:103960007B88022B29D10923FB7326E07A68184B48
:103970009A4222D17B88012B02D10A23FB731CE0DF
:103980007B88022B02D10B23FB7316E07B88042B70
:1039900002D10C23FB7310E07B88082B02D10D238E
:1039A000FB730AE07B88102B02D10E23FB7304E02B
:1039B0007B88082B01D10F23FB73FB7B1846143740
:1039C000BD465DF8047B70470000024000040240E1
:1039D0000008024090B5B5B002AF78600B467B801E
:1039E0000023A7F8C6300023A7F8C43007F1B403BA
:1039F00000221A60043300221A60043300221A6085
:103A0000043300221A600433FF2387F8B43007F12F
:103A10009C031846FFF7DAFD07F18C031846FFF701
:103A20001BFE07F15003184600F09CFE4FF4807017
:103A30000121FFF70FFD4FF480000121FFF7B0FCDB
:103A40007B8800220092032079681A460023FDF744
:103A500085FE7A8807F10C031046194602F098FBA0
:103A6000694800F057FD00233B65684B7B65684B58
:103A7000BB650023FB65BB8D3B6600237B664FF473
:103A80008063BB664FF40063FB664FF400533B67F3
:103A90004FF480737B674FF40033BB670023FB67F1
:103AA0000123C7F880300023C7F884300023C7F80B
:103AB000883007F150035448194600F0FDFD524884
:103AC000012100F085FEFFF71FFD0023C7F88C30B1
:103AD0000023C7F890300023C7F894304FF4706388
:103AE000C7F8983007F18C031846FFF78DFD0023C7
:103AF000C7F89C30012387F8A030012387F8A13054
:103B00000023C7F8A4300023C7F8A8300023C7F863
:103B1000AC30BB8DDBB287F8B03007F19C033D4879
:103B20001946FFF7FFFC3B480121FFF79BFE0023EE
:103B3000A7F8C63024E0B7F8C6305B0007F1C8022A
:103B4000134433F8BC3C012B15D1B7F8C640B7F885
:103B5000C63010335B0007F1C802134433F8BA3C97
:103B600078681946FFF7B6FE03461A4607F1C80300
:103B7000234403F8142CB7F8C6300133A7F8C63035
:103B8000B7F8C6300F2BD6D90023A7F8C63028E0E7
:103B9000B7F8C63007F1C802134413F8143CFF2BE2
:103BA0001AD0B7F8C4300133A7F8C430BB8DB7F8CA
:103BB000C4209A4200D918E0B7F8C63007F1C8020D
:103BC000134413F8142CB7F8C430DBB21148114673
:103BD0001A460723FFF772FDB7F8C6300133A7F87E
:103BE000C630B7F8C6300F2BD2D90A480121FFF7EB
:103BF00055FE08480121FFF745FD0648FFF722FE64
:103C0000CC37BD4690BD00BF106402404C2001403F
:103C1000B00600200020014080B483B000AF03460E
:103C20003960FB713B6812221A80034B18460C372F
:103C3000BD465DF8047B70477800002080B483B0F7
:103C400000AF03463960FB713B6804221A80034BC6
:103C500018460C37BD465DF8047B7047980000207D
:103C600080B582B000AF03463960FB71FB79002B51
:103C700005D1084808493A6801F0AAFA04E0074863
:103C800005493A6801F0A4FA034B18460837BD46C7
:103C900080BD00BFECB10008800D002010B200080C
:103CA00080B582B000AF03463960FB710448054916
:103CB0003A6801F08DFA034B18460837BD4680BDBF
:103CC00034B20008800D002080B582B000AF0346FA
:103CD0003960FB71FB79002B05D1084808493A6827
:103CE00001F076FA04E0074805493A6801F070FAF5
:103CF000034B18460837BD4680BD00BF48B20008D8
:103D0000800D002058B2000880B582B000AF034695
:103D10003960FB71FB79002B05D1084808493A68E6
:103D200001F056FA04E0054805493A6801F050FAF6
:103D3000034B18460837BD4680BD00BF68B2000877
:103D4000800D002080B582B000AF03463960FB7162
:103D5000FB79002B05D1084808493A6801F038FA88
:103D600004E0054805493A6801F032FA034B184669
:103D70000837BD4680BD00BF74B20008800D00202A
:103D800080B483B000AF03463960FB7197F9073008
:103D9000002B0BDA0D49FB7903F00F03043B3A6863
:103DA000D2B21201D2B20B441A7609E0084997F94F
:103DB00007303A68D2B21201D2B20B4483F8002322
:103DC0000C37BD465DF8047B704700BF00ED00E096
:103DD00000E100E080B582B000AF78607B68B3F1AD
:103DE000807F01D3012311E00A4B7A6822F07F42E1
:103DF000013A5A604FF0FF300F21FFF7C1FF054B2A
:103E000000229A60034B07221A60002318460837E5
:103E1000BD4680BD10E000E080B400AF044B1B68DD
:103E20005A1C034B1A60BD465DF8047B704700BF07
:103E3000C006002080B582B000AF87ED010A00F017
:103E400073FA4FF0FF300121FFF79AFF094B1B680F
:103E500007EE903AB8EE677AD7ED017A67EE277AE7
:103E6000FCEEE77A17EE903A1846FFF7B3FF0837F3
:103E7000BD4680BDB800002080B487B000AF786038
:103E8000396000237B6100233B610023FB6000233A
:103E90007B6176E07B69012202FA03F33B613B68B8
:103EA0001A683B691340FB60FA683B699A4265D126
:103EB0007B681A687B695B00032101FA03F3DB432B
:103EC0001A407B681A607B681A683B681B79194640
:103ED0007B695B0001FA03F31A437B681A603B6855
:103EE0001B79012B03D03B681B79022B2ED17B68F9
:103EF0009A687B695B00032101FA03F3DB431A40F4
:103F00007B689A607B689A683B685B7919467B6935
:103F10005B0001FA03F31A437B689A607B685A6876
:103F20007B699BB2012101FA03F3DB431A407B68F2
:103F30005A607B685A683B689B7919467B699BB2DB
:103F400001FA03F39BB21A437B685A607B68DA6814
:103F50007B699BB25B00032101FA03F3DB431A4048
:103F60007B68DA607B68DA683B68DB7919467B69D5
:103F70005B0001FA03F31A437B68DA607B69013363
:103F80007B617B690F2B85D91C37BD465DF8047BAF
:103F9000704700BF80B483B000AF78607B684FF695
:103FA000FF721A607B6800221A717B6800225A71C6
:103FB0007B6800229A717B680022DA710C37BD465B
:103FC0005DF8047B704700BF80B485B000AF7860B7
:103FD0000B467B800023FB737B681A697B88134048
:103FE000002B02D00123FB7301E00023FB73FB7B5A
:103FF00018461437BD465DF8047B704780B483B023
:1040000000AF78600B467B807B687A885A830C37D8
:10401000BD465DF8047B704780B485B000AF786022
:1040200013460A467A807B700023FB600023BB6046
:104030007A787B8803F007039B0002FA03F3FB60A6
:104040007B88DB089BB21A467B88DB089BB219464B
:104050007B68083153F821107B8803F007039B002D
:104060000F2000FA03F3DB4319407B68083243F862
:1040700022107B88DB089BB21A467B68083253F813
:104080002220FB681343BB607B88DB089BB21A4687
:104090007B680832B96843F822101437BD465DF8D2
:1040A000047B704780B400AF00231846BD465DF81E
:1040B000047B704780B400AF00231846BD465DF80E
:1040C000047B704780B485B000AFF860B9607A6057
:1040D000FB68232B74D801A252F823F0C1410008D9
:1040E000C1410008C1410008C1410008C1410008A8
:1040F000C1410008C1410008C1410008C141000898
:10410000C1410008C1410008C1410008C141000887
:10411000C1410008C1410008C1410008C141000877
:10412000C1410008C1410008C1410008C141000867
:10413000C1410008C1410008C1410008C141000857
:10414000C1410008C1410008C1410008C141000847
:10415000C1410008C1410008C1410008C141000837
:104160006D410008C1410008C1410008184B1B689F
:10417000DAB2BB681A70BB680133154A1268120ABA
:10418000D2B21A70BB680233114A1268120CD2B252
:104190001A70BB6803330E4A1268120ED2B21A703C
:1041A000BB6804330A4A12791A70BB680533084A9F
:1041B00052791A70BB680633054A92791A7000E08A
:1041C00000BF002318461437BD465DF8047B7047D6
:1041D0009C00002080B582B000AF0346FB71FB1D40
:1041E0001846012100F004F80837BD4680BD00BF25
:1041F00080B485B000AF786039600023FB6017E0C1
:10420000114B1B687968FA680A4411780F4AD15437
:104210000D4B1B685A1C0C4B1A60FB680133FB608A
:10422000094B1B68B3F5006F02D1074B00221A60DF
:10423000FA683B689A42E3D3002318461437BD4618
:104240005DF8047B704700BFD8060020400E0020B8
:1042500080B485B000AF786039600023FB601EE059
:10426000144B1B687968FA680A441178124AD154D1
:10427000104B1B685A1C0F4B1A600E4B1B68802B8F
:1042800002D10C4B00221A600A4B1A680B4B1B68B8
:104290009A4201D1022307E0FB680133FB60FA6810
:1042A0003B689A42DCD3002318461437BD465DF8BC
:1042B000047B70477C0D0020E80C0020680D002076
:1042C00080B500AF154B154AD2F8882042F4700231
:1042D000C3F88820124B124A126842F001021A6099
:1042E0000F4B00229A600E4A0D4B1B6823F084731B
:1042F00023F4803313600A4B0A4A5A60084B084A79
:10430000126822F480221A60054B0022DA6000F065
:1043100087F8024B4FF000629A6080BD00ED00E02C
:10432000003802401030002480B487B000AF002372
:104330003B6100237B610223FB600023BB600223FF
:104340007B60324B9B6803F00C033B613B69042BA1
:1043500007D0082B09D0002B3FD12D4B2D4A1A60D6
:104360003FE02B4B2C4A1A603BE0284B5B6803F480
:1043700080039B0DBB60254B5B6803F03F037B60B4
:10438000BB68002B0DD0244A7B68B2FBF3F21F4BB5
:10439000596847F6C0730B409B0903FB02F37B612E
:1043A0000CE01C4A7B68B2FBF3F2184B596847F6E5
:1043B000C0730B409B0903FB02F37B61134B5B68EB
:1043C00003F440331B0C01335B00FB607A69FB682C
:1043D000B2FBF3F20E4B1A6003E00D4B0D4A1A606C
:1043E00000BF0A4B9B6803F0F0031B090B4AD35C28
:1043F000DBB23B61064B1A683B69DA40044B1A603A
:104400001C37BD465DF8047B704700BF0038024092
:10441000B80000200024F40000127A00BC00002044
:1044200080B483B000AF00237B6000233B60354B3A
:10443000344A126842F480321A60324B1B6803F42B
:1044400000333B607B6801337B603B68002B03D10A
:104450007B68B3F5A06FF0D12A4B1B6803F40033DF
:10446000002B02D001233B6001E000233B603B684E
:10447000012B42D1234B234A126C42F080521A6422
:10448000214B214A126842F480421A601D4B1D4A9A
:1044900092689A601B4B1B4A926842F400429A60F1
:1044A000184B184A926842F4A0529A60154B174A6A
:1044B0005A60144B134A126842F080721A6000BFAF
:1044C000104B1B6803F00073002BF9D0104B40F227
:1044D00005621A600B4B0B4A926822F003029A6045
:1044E000084B084A926842F002029A6000BF054BEE
:1044F0009B6803F00C03082BF9D10C37BD465DF81F
:10450000047B7047003802400070004008544007A8
:10451000003C024080B483B000AF78607B681B68C9
:1045200023F001027B681A607B6800221A607B68B6
:1045300000225A607B6800229A607B680022DA6061
:104540007B6800221A617B6821225A617A68454B98
:104550009A4203D1444B3D229A607EE07A68434BF5
:104560009A4204D1404B4FF474629A6075E07A68C5
:104570003F4B9A4204D13C4B4FF474129A606CE06A
:104580007A683C4B9A4204D1374B4FF074629A6080
:1045900063E07A68384B9A4203D1334B374ADA608A
:1045A0005BE07A68364B9A4203D12F4B354ADA608A
:1045B00053E07A68344B9A4203D12B4B334ADA608A
:1045C0004BE07A68324B9A4204D1274B4FF03D5270
:1045D000DA6042E07A682F4B9A4203D12E4B3D229B
:1045E0009A603AE07A682D4B9A4204D12A4B4FF4F4
:1045F00074629A6031E07A68294B9A4204D1264B62
:104600004FF474129A6028E07A68264B9A4204D1DB
:10461000214B4FF074629A601FE07A68224B9A42F5
:1046200003D11D4B154ADA6017E07A681F4B9A4296
:1046300003D1194B134ADA600FE07A681C4B9A4297
:1046400003D1154B114ADA6007E07A68194B9A4298
:1046500003D1114B4FF03D52DA600C37BD465DF887
:10466000047B7047106002400060024028600240F6
:104670004060024058600240706002403D000020EF
:1046800088600240400F0020A060024000003D20F2
:10469000B860024010640240006402402864024096
:1046A00040640240586402407064024088640240E2
:1046B000A0640240B864024080B485B000AF786066
:1046C00039600023FB607B681B68FB60FA68244B41
:1046D0001340FB603B681A683B68DB681A433B6821
:1046E0005B691A433B689B691A433B68DB691A4361
:1046F0003B681B6A1A433B685B6A1A433B689B6AC8
:104700001A433B685B6B1A433B689B6B1343FA6825
:104710001343FB607B68FA681A607B685B69FB6027
:10472000FB6823F00703FB603B68DA6A3B681B6B9E
:104730001343FA681343FB607B68FA685A613B686D
:104740001A697B685A603B685A687B689A603B6864
:104750009A687B68DA601437BD465DF8047B704761
:104760003F801CF080B483B000AF78607B6800228B
:104770001A607B6800225A607B6800229A607B681E
:104780000022DA607B6800221A617B6800225A618D
:104790007B6800229A617B680022DA617B680022D4
:1047A0001A627B6800225A627B6800229A627B68E8
:1047B0000022DA627B6800221A637B6800225A6357
:1047C0007B6800229A630C37BD465DF8047B704716
:1047D00080B483B000AF78600B46FB70FB78002B91
:1047E00006D07B681B6843F001027B681A6005E015
:1047F0007B681B6823F001027B681A600C37BD469A
:104800005DF8047B704700BF80B584B000AF78606E
:1048100001200121FEF7C4FD4FF4D853BB600323F0
:104820007B7302233B730023BB730023FB7307F1ED
:10483000080320481946FFF71FFB1E4808210A22DB
:10484000FFF7EAFB1B4809210A22FFF7E5FB19489D
:104850000B210A22FFF7E0FB16480C210A22FFF782
:10486000DBFB4FF48063BB600123BB730123FB734D
:1048700003237B7307F108030E481946FFF7FCFA80
:104880000C480A210A22FFF7C7FB4FF480400121A0
:10489000FEF7E0FD80200121FEF7A0FD4FF08050E3
:1048A0000121FEF7F5FD012001F064FC1037BD4643
:1048B00080BD00BF0000024080B584B000AF7860CA
:1048C0004FF4C06001F0E0FF43233B7301237B738F
:1048D0000323BB730123FB7307F10C03184601F09C
:1048E000E5FF1037BD4680BD80B485B000AF78606D
:1048F0000023FB607A6813461B019B1ADB001A46F3
:104900000A4BA3FB0213D21A520813449B08BB6044
:10491000FB680133FB60FA68BB689A4200D900E08B
:10492000F6E71437BD465DF8047B704725499224AD
:1049300080B582B000AF78607B684FF47A7202FB7A
:1049400003F31846FFF7D0FF0837BD4680BD00BF10
:1049500080B584B000AF786039600023FB733B689A
:104960005B78092B39D801A252F823F0BD49000821
:10497000D1490008DB490008C7490008DB490008A5
:104980009F49000895490008DB490008B349000821
:10499000A94900087868396800F036F922E078689B
:1049A000396800F00DFA1DE07868396800F046FAC1
:1049B00018E07868396800F0BBFA13E07868396865
:1049C00000F0E6FA0EE07868396800F009FB09E0CB
:1049D0007868396800F06AFB04E07868396800F0AC
:1049E000D3FB00BFFB7B18461037BD4680BD00BF20
:1049F00080B584B000AF786039600023FB737B68BA
:104A000093F81231032B1CD13B689B88DBB2012B3E
:104A100011D87B68D3F8E0359B6878683968984787
:104A20003B68DB88002B0BD1FB7B002B08D178681F
:104A300002F016FA0AE07868396800F0A5FB05E094
:104A400004E07868396800F09FFB00BFFB7B1846E4
:104A50001037BD4680BD00BF80B584B000AF786020
:104A600039600023FB733B689B88BB733B685B78B2
:104A7000012B39D0032B02D0002B6BD0BCE07B681C
:104A800093F81231022B02D0032B0DD026E0BB7B12
:104A9000002B08D0BB7B802B05D0BB7B78681946E8
:104AA00002F0E4F81FE01EE03B685B88002B0AD1AF
:104AB000BB7B002B07D0BB7B802B04D0BB7B7868F3
:104AC000194602F0D3F87B68D3F8E0359B68786824
:104AD00039689847786802F0C3F904E07868396863
:104AE00000F052FB00BF87E07B6893F81231022B85
:104AF00002D0032B0DD027E0BB7B002B08D0BB7B63
:104B0000802B05D0BB7B7868194602F0AFF820E017
:104B10001FE03B685B88002B15D1BB7B002B0ED0C0
:104B2000BB7B802B0BD0BB7B7868194602F0D8F892
:104B30007B68D3F8E0359B6878683968984778686F
:104B400002F08EF905E004E07868396800F01CFB9B
:104B500000BF51E07B6893F81231022B02D0032B87
:104B60000DD043E0BB7B002B08D0BB7B802B05D056
:104B7000BB7B7868194602F079F83CE03BE0BB7BF0
:104B80005BB2002B15DABB7B03F07F02796813461A
:104B90009B001344DB000B4403F58C739B78002BC4
:104BA00003D0184B01221A601AE0164B00221A603B
:104BB00016E0BB7B5BB2002B12DBBA7B7968134635
:104BC0009B001344DB000B4403F55C739B78002BC4
:104BD00003D00C4B01221A6002E00A4B00221A603B
:104BE00078680849022202F0D3F804E0786839684E
:104BF00000F0CAFA00BF00BFFB7B18461037BD4665
:104C000080BD00BFC406002080B584B000AF7860CE
:104C100039603B685B881B0A9BB2013B062B00F2A4
:104C2000B18001A252F823F0454C0008774C0008EF
:104C3000A14C0008854D0008854D0008714D000805
:104C40007B4D00087B68D3F8E8351B687A6891785B
:104C500007F10A02084611469847F8603B68DB886E
:104C6000402B04D07B6893F81231012B02D108232A
:104C70007B818CE08BE07B68D3F8E0359B6A7A68B7
:104C8000917807F10A02084611469847F860FB68D8
:104C9000013302221A707B68FA68C3F8EC2576E0CB
:104CA0003B685B88DBB2052B5CD801A252F823F08D
:104CB000C94C0008E34C0008FD4C0008174D0008E3
:104CC000314D00084B4D00087B68D3F8E8355B6830
:104CD0007A68917807F10A02084611469847F86009
:104CE00045E07B68D3F8E8359B687A68917807F1EE
:104CF0000A02084611469847F86038E07B68D3F806
:104D0000E835DB687A68917807F10A0208461146AF
:104D10009847F8602BE07B68D3F8E8351B697A6820
:104D2000917807F10A02084611469847F8601EE09C
:104D30007B68D3F8E8355B697A68917807F10A02F5
:104D4000084611469847F86011E07B68D3F8E835CB
:104D50009B697A68917807F10A02084611469847DC
:104D6000F86004E07868396800F00EFA24E00EE09C
:104D70007868396800F008FA1EE07868396800F051
:104D800003FA19E07868396800F0FEF914E07B89CD
:104D9000002B11D03B68DB88002B0DD03B68DA88F4
:104DA0007B899A4238BF13469BB27B817B897868A6
:104DB000F9681A4601F0ECFF1037BD4680BD00BF10
:104DC00080B584B000AF786039603B689B88002B69
:104DD0002DD13B68DB88002B29D13B685B88DBB297
:104DE00003F07F03FB737B6893F81231032B04D12C
:104DF0007868396800F0C8F918E07B68FA7B83F8B6
:104E00001321FB7B7868194601F0A4FF786802F053
:104E100027F8FB7B002B04D07B68022283F8122149
:104E200004E07B68012283F8122104E003E0786843
:104E3000396800F0A9F91037BD4680BD80B582B051
:104E400000AF786039603B685B88DAB2374B1A7024
:104E5000364B1B78012B04D97868396800F094F937
:104E600060E07B6893F81231022B02D0032B1BD039
:104E700053E02E4B1B78002B12D02C4B1A787B68FA
:104E800083F810217B68032283F81221274B1B78BB
:104E900078681946FDF744FC786801F0E1FF41E0CD
:104EA000786801F0DDFF3DE0204B1B78002B12D12C
:104EB0007B68022283F812211C4B1A787B6883F8E6
:104EC00010211A4B1B7878681946FDF741FC786869
:104ED00001F0C6FF20E07B6893F81021134B1B788C
:104EE0009A4215D07B6893F8103178681946FDF71F
:104EF0002FFC0E4B1A787B6883F810210B4B1B7824
:104F000078681946FDF70CFC786801F0A9FF03E00A
:104F1000786801F0A5FF05E004E07868396800F0E2
:104F200033F900BF0837BD4680BD00BFD006002062
:104F300080B582B000AF786039603B68DB88012BB8
:104F400004D07868396800F01FF91BE07B6893F89B
:104F50001231022B02D0032B06D00EE078680B49E9
:104F6000012201F015FF0DE07B6803F58873786876
:104F70001946012201F00CFF04E07868396800F05E
:104F800003F900BF0837BD4680BD00BFC80600203A
:104F900080B582B000AF786039607B6893F81231D9
:104FA000023B012B11D87B68D3F81431002B03D0BE
:104FB0000A4B03221A6002E0084B01221A6078684B
:104FC0000649012201F0E4FE04E07868396800F047
:104FD000DBF800BF0837BD4680BD00BFCC0600200F
:104FE00080B584B000AF786039600023FB733B6804
:104FF0005B88012B0ED17B680122C3F814217B68EA
:10500000D3F8E0359B68786839689847786801F08C
:1050100027FF48E03B685B88022B44D13B689B88B4
:10502000DBB2002B3FD17B681B695B68BB603B68D0
:105030009B881B0A9BB2FB73FB7B013B042B2BD889
:1050400001A252F823F000BF5D500008695000082B
:1050500075500008815000088D5000083B7A0122ED
:1050600062F306133B7217E03B7A022262F30613E7
:105070003B7211E03B7A032262F306133B720BE0B2
:105080003B7A042262F306133B7205E03B7A052269
:1050900062F306133B7200BF7B681B69BA685A60F3
:1050A000786801F0DDFE1037BD4680BD80B582B066
:1050B00000AF786039607B6893F81231023B012BB6
:1050C00013D83B685B88012B0ED17B680022C3F8A4
:1050D00014217B68D3F8E0359B6878683968984775
:1050E000786801F0BDFE05E004E07868396800F0FA
:1050F0004BF800BF0837BD4680BD00BF80B483B009
:1051000000AF786039607B6893F8C8253B681A70F7
:105110007B6893F8C9253B685A707B6893F8CA3559
:105120001A467B6893F8CB351B029BB213449AB2A4
:105130003B685A807B6893F8CC351A467B6893F8B5
:10514000CD351B029BB213449AB23B689A807B68B0
:1051500093F8CE351A467B6893F8CF351B029BB285
:1051600013449AB23B68DA803B68DB881A467B6856
:10517000C3F83C217B68012283F811210C37BD461E
:105180005DF8047B704700BF80B582B000AF7860E7
:1051900039603B681B78DBB25BB2002B04DA7868BD
:1051A000802101F063FD0CE03B68DB88002B04D11B
:1051B0007868802101F05AFD03E07868002101F051
:1051C00055FD7868FCF768FA0837BD4680BD00BF1A
:1051D00080B586B000AFF860B9607A600023FB75D7
:1051E000FB68002B2FD0F86800F030F8034601333D
:1051F0009BB25B009AB27B681A80FB7D5A1CFA75E1
:10520000BA6813447A681288D2B21A70FB7D5A1CAD
:10521000FA75BA68134403221A7010E0FB7D5A1C19
:10522000FA75BA681A44FB68591CF9601B78137048
:10523000FB7D5A1CFA75BA68134400221A70FB6889
:105240001B78002BEAD11837BD4680BD80B485B0ED
:1052500000AF78600023FB7305E0FB7B0133FB7339
:105260007B6801337B607B681B78002BF5D1FB7B6F
:1052700018461437BD465DF8047B704780B586B08C
:1052800000AF786000237B617868FBF72FFC034652
:10529000002B00F09C807868FBF73AFC03463B61EA
:1052A0003B69002B01D1002392E0BB7CC3F3C00318
:1052B000DBB2002B06D0786800F012FA03467A6958
:1052C00013437B61BB7CC3F38003DBB2002B06D0AE
:1052D000786800F00FF903467A6913437B613B7CE1
:1052E000C3F34003DBB2002B09D00023FB603B7B00
:1052F00043F002033B737B68DB68FA685A61FB7C0E
:10530000C3F3C013DBB2002B06D0786800F064F85A
:1053100003467A6913437B617B7CC3F3C003DBB232
:10532000002B06D0786800F097F803467A6913439B
:105330007B613B7CC3F3C003DBB2002B06D07868F3
:1053400000F08AFA03467A6913437B613B7CC3F31E
:105350000013DBB2002B06D0786800F097FA034602
:105360007A6913437B617B7CC3F30013DBB2002BB0
:1053700006D0786800F07EFB03467A6913437B61B0
:105380007B7CC3F34013DBB2002B06D0786800F0BF
:1053900013FC03467A6913437B61BB7CC3F30013A0
:1053A000DBB2002B06D0786800F042FC03467A6935
:1053B00013437B61BB7CC3F34013DBB2002B06D0ED
:1053C000786800F04FFC03467A6913437B617B6980
:1053D00018461837BD4680BD80B586B000AF7860EE
:1053E0007B689B7A002B11D07B6803F586731B6862
:1053F000FB603B7B6FF341033B733B7B6FF300032D
:105400003B737B68D3F80C31FA681A6000233B6168
:105410003B7C43F001033B747B681B697A6812692B
:1054200051683A69D2430A405A600A4B1B689B692B
:105430007868984700237B61FB7D43F08003FB7510
:105440007B68DB687A695A61012318461837BD46C4
:1054500080BD00BF4800002080B586B000AF7860F6
:10546000224B1B685B69786898477B681B699B685F
:10547000FB6000237B617B7D43F008037B757B68C9
:10548000DB687A695A617B689B7A002B29D03B7B69
:10549000C3F30003DBB2012B23D100233B613B7C30
:1054A00043F001033B747B68D3F80C317A68D2F87F
:1054B0000C2111683A690A431A603B7C43F00203ED
:1054C0003B747B68D3F80C317A68D2F80C211168F0
:1054D0003A690A431A60064B054A126942F006020D
:1054E0001A61012318461837BD4680BD48000020C8
:1054F00000ED00E080B586B000AF786000233B612E
:105500000023BB607868FCF7B1F87861DCE07B6968
:1055100003F00103002B00F0D1803B69DBB2786817
:10552000194600F0B9FB0346BB603B7AC3F30003A6
:10553000DBB2002B32D03B69012202FA03F3FB609D
:105540007B681B697A681269516BFA68D2430A401A
:105550005A630023BB603B7A43F001033B727A68D5
:105560003B6904339B0013449B68BA689A605B4BA9
:105570001B685B683A69D2B27868114698477B68C5
:10558000DB78012B0AD13B69002B07D17B6893F8AC
:105590001131042B02D17868FCF77EF83B7AC3F313
:1055A0008003DBB2002B0DD00023BB603B7A43F0BD
:1055B00004033B727A683B6904339B0013449B6885
:1055C000BA689A603B7AC3F3C003DBB2002B0DD0FC
:1055D0000023BB603B7A43F008033B727A683B6967
:1055E00004339B0013449B68BA689A603B7AC3F308
:1055F0000013DBB2002B0DD00023BB603B7A43F0DD
:1056000010033B727A683B6904339B0013449B6828
:10561000BA689A603B7AC3F34013DBB2002B0DD01B
:105620000023BB603B7A43F020033B727A683B69FE
:1056300004339B0013449B68BA689A603B7AC3F3B7
:105640008013DBB2002B0DD00023BB603B7A43F00C
:1056500040033B727A683B6904339B0013449B68A8
:10566000BA689A603B7AC3F34003DBB2002B0DD0DB
:105670000023BB603B7A43F002033B727A683B69CC
:1056800004339B0013449B68BA689A603B7AC3F367
:10569000C013DBB2002B11D07868396900F078F9BB
:1056A0000023BB603B7A43F080033B727A683B691E
:1056B00004339B0013449B68BA689A603B690133CA
:1056C0003B617B695B087B617B69002B7FF41FAFCB
:1056D000012318461837BD4680BD00BF4800002092
:1056E00080B586B000AF786000233B610023FB608B
:1056F0007868FBF789FF7861A3E07B6903F0010319
:10570000002B00F098803B69DBB278681946FBF704
:1057100091FF0346FB603B7BC3F30003DBB2002B2E
:1057200048D00023FB603B7B43F001033B737A6866
:105730003B6914339B0013445B68FA689A607B688A
:10574000DB78012B1FD17A683B6914339B0013442B
:105750005B681B69BB6079683A6913469B00134418
:10576000DB000B4403F55E731A68BB68C3F31203D6
:10577000D11A78683A6913469B001344DB0003444E
:1057800003F562731960334B1B681B683A69D2B228
:105790007868114698477B68DB78012B0AD13B6912
:1057A000002B07D17B6893F81131052B02D1786863
:1057B000FBF772FF3B7BC3F34003DBB2002B0DD042
:1057C0000023FB603B7B43F002033B737A683B6939
:1057D00014339B0013445B68FA689A603B7BC3F305
:1057E0008003DBB2002B0DD00023FB603B7B43F03A
:1057F00004033B737A683B6914339B0013445B6872
:10580000FA689A603B7BC3F3C003DBB2002B12D073
:10581000104B1B689B68786898470023FB603B7BB4
:1058200043F008033B737A683B6914339B001344CD
:105830005B68FA689A603B6901333B617B695B088E
:105840007B617B69002B7FF458AF01231846183722
:10585000BD4680BD4800002080B584B000AF7860B0
:10586000094B1B68DB68786898470023FB603B7B2B
:1058700043F008033B737B68DB68FA685A610123D5
:1058800018461037BD4680BD4800002080B586B060
:1058900000AF786000233B613B7C43F010033B7416
:1058A0007B68DB687A68D26891693A69D2430A40BA
:1058B0009A617B68DB681B6AFB603B7BC3F3030375
:1058C000DBB21A4613469B001344DB0003F55C73FE
:1058D0007A6813447B61BB7BC3F34303DBB2013BB8
:1058E000052B46D801A252F823F000BF73590008D7
:1058F00005590008735900087359000873590008C6
:105900004F590008BB89C3F30A139BB2002B1DD06B
:105910007B69DA68BB89C3F30A139BB278681146C6
:105920001A46FAF72DFE7B69DA68BB89C3F30A13BE
:105930009BB21A447B69DA607B699A69BB89C3F3BD
:105940000A139BB21A447B699A6113E012E07B68E8
:1059500003F5B963786819460822FAF711FE7B69E6
:105960009A69BB89C3F30A139BB21A447B699A6193
:1059700000E000BF7B68DB687A68D26891693A69A9
:105980000A439A61012318461837BD4680BD00BFFF
:1059900080B586B000AF7860396000237B6100235A
:1059A000BB603A6813469B001344DB0003F58C731D
:1059B0007A681344FB60FB685A69FB689B69D31AD9
:1059C0007B61FB689A687B699A4202D2FB689B689C
:1059D0007B617B6903339B083B617A683B680433D6
:1059E0009B0013449B689B69BB602EE0FB685A696F
:1059F000FB689B69D31A7B61FB689A687B699A4252
:105A000002D2FB689B687B617B6903339B083B6127
:105A1000FB68D9683B68DAB27B699BB27868FAF7B1
:105A200077FDFB68DA687B691A44FB68DA60FB681B
:105A30009A697B691A44FB689A617A683B68043307
:105A40009B0013449B689B69BB603B891A463B697A
:105A50009A4209D9FB689A69FB685B699A4203D24A
:105A6000FB685B69002BC1D1012318461837BD467E
:105A700080BD00BF80B58AB000AF786000233B6175
:105A800000233B620023FB610023BB6100237B6199
:105A90000023FB603B7C43F001033B747B681B6984
:105AA0007A68126951683A69D2430A405A60786844
:105AB0000021FAF771FF00237B6212E07A687B6AAB
:105AC00004339B0013449B68FF229A607A687B6AC8
:105AD00014339B0013445B68FF229A607B6A013396
